{
  "contractName": "Lecture14",
  "abi": [
    {
      "anonymous": false,
      "inputs": [
        {
          "indexed": false,
          "internalType": "uint256",
          "name": "num",
          "type": "uint256"
        },
        {
          "indexed": false,
          "internalType": "string",
          "name": "str",
          "type": "string"
        }
      ],
      "name": "numberTracker",
      "type": "event"
    },
    {
      "anonymous": false,
      "inputs": [
        {
          "indexed": true,
          "internalType": "uint256",
          "name": "num",
          "type": "uint256"
        },
        {
          "indexed": false,
          "internalType": "string",
          "name": "str",
          "type": "string"
        }
      ],
      "name": "numberTracker2",
      "type": "event"
    },
    {
      "inputs": [
        {
          "internalType": "string",
          "name": "_str",
          "type": "string"
        }
      ],
      "name": "PushEvent",
      "outputs": [],
      "stateMutability": "nonpayable",
      "type": "function"
    }
  ],
  "bytecode": "0x60806040526000805534801561001457600080fd5b506103d5806100246000396000f3fe608060405234801561001057600080fd5b506004361061002b5760003560e01c8063017da4c114610030575b600080fd5b61004a60048036038101906100459190610143565b61004c565b005b7f03eff96be556f3f2723cf37f74bbd4e1cc33a150b8d6c459da9382b55d66a4356000548260405161007f9291906101ee565b60405180910390a16000547ffb4ffcebb0192c9c8eb7d1a661004ce72a1f9ab354ed4d7d9711b7cc9b1ad361826040516100b991906101cc565b60405180910390a26000808154809291906100d3906102e7565b919050555050565b60006100ee6100e98461024f565b61021e565b90508281526020810184848401111561010657600080fd5b6101118482856102a5565b509392505050565b600082601f83011261012a57600080fd5b813561013a8482602086016100db565b91505092915050565b60006020828403121561015557600080fd5b600082013567ffffffffffffffff81111561016f57600080fd5b61017b84828501610119565b91505092915050565b600061018f8261027f565b610199818561028a565b93506101a98185602086016102b4565b6101b28161038e565b840191505092915050565b6101c68161029b565b82525050565b600060208201905081810360008301526101e68184610184565b905092915050565b600060408201905061020360008301856101bd565b81810360208301526102158184610184565b90509392505050565b6000604051905081810181811067ffffffffffffffff821117156102455761024461035f565b5b8060405250919050565b600067ffffffffffffffff82111561026a5761026961035f565b5b601f19601f8301169050602081019050919050565b600081519050919050565b600082825260208201905092915050565b6000819050919050565b82818337600083830152505050565b60005b838110156102d25780820151818401526020810190506102b7565b838111156102e1576000848401525b50505050565b60006102f28261029b565b91507fffffffffffffffffffffffffffffffffffffffffffffffffffffffffffffffff82141561032557610324610330565b5b600182019050919050565b7f4e487b7100000000000000000000000000000000000000000000000000000000600052601160045260246000fd5b7f4e487b7100000000000000000000000000000000000000000000000000000000600052604160045260246000fd5b6000601f19601f830116905091905056fea2646970667358221220b8e8c5011a8d687525f365c34aa82bc4b402d12752000ee15bc456d62c98f1c264736f6c63430008000033",
  "immutableReferences": {},
  "source": "// SPDX-License-Identifier: MIT\n\npragma solidity ^0.8.0;\n\ncontract Lecture14  {\n    event numberTracker(uint256 num, string str);\n    event numberTracker2(uint256 indexed num, string str);\n\n    uint256 num =0;\n    function PushEvent(string memory _str) public {\n        emit numberTracker(num,_str);\n        emit numberTracker2(num,_str);\n        num ++;\n    }\n}",
  "sourcePath": "/Users/mac/Desktop/KGA/TypeScript/ethereum/breakSolidity/lec14/contracts/Lec14.sol",
  "compiler": {
    "name": "solc",
    "version": "0.8.0+commit.c7dfd78e.Emscripten.clang"
  },
  "schemaVersion": "3.4.14",
  "updatedAt": "2023-06-07T01:34:37.741Z",
  "networkType": "ethereum",
  "devdoc": {
    "kind": "dev",
    "methods": {},
    "version": 1
  },
  "userdoc": {
    "kind": "user",
    "methods": {},
    "version": 1
  }
}