{
  "contractName": "IngToken",
  "abi": [
    {
      "inputs": [],
      "stateMutability": "nonpayable",
      "type": "constructor"
    },
    {
      "inputs": [
        {
          "internalType": "address",
          "name": "",
          "type": "address"
        }
      ],
      "name": "balances",
      "outputs": [
        {
          "internalType": "uint256",
          "name": "",
          "type": "uint256"
        }
      ],
      "stateMutability": "view",
      "type": "function",
      "constant": true
    },
    {
      "inputs": [],
      "name": "decimals",
      "outputs": [
        {
          "internalType": "uint8",
          "name": "",
          "type": "uint8"
        }
      ],
      "stateMutability": "view",
      "type": "function",
      "constant": true
    },
    {
      "inputs": [],
      "name": "name",
      "outputs": [
        {
          "internalType": "string",
          "name": "",
          "type": "string"
        }
      ],
      "stateMutability": "view",
      "type": "function",
      "constant": true
    },
    {
      "inputs": [],
      "name": "symbol",
      "outputs": [
        {
          "internalType": "string",
          "name": "",
          "type": "string"
        }
      ],
      "stateMutability": "view",
      "type": "function",
      "constant": true
    },
    {
      "inputs": [],
      "name": "totalSupply",
      "outputs": [
        {
          "internalType": "uint256",
          "name": "",
          "type": "uint256"
        }
      ],
      "stateMutability": "view",
      "type": "function",
      "constant": true
    },
    {
      "inputs": [
        {
          "internalType": "address",
          "name": "_account",
          "type": "address"
        }
      ],
      "name": "balanceOf",
      "outputs": [
        {
          "internalType": "uint256",
          "name": "balance",
          "type": "uint256"
        }
      ],
      "stateMutability": "view",
      "type": "function",
      "constant": true
    },
    {
      "inputs": [
        {
          "internalType": "address",
          "name": "_to",
          "type": "address"
        },
        {
          "internalType": "uint256",
          "name": "_value",
          "type": "uint256"
        }
      ],
      "name": "transfer",
      "outputs": [
        {
          "internalType": "bool",
          "name": "",
          "type": "bool"
        }
      ],
      "stateMutability": "nonpayable",
      "type": "function"
    }
  ],
  "bytecode": "0x608060405260405180602001604052806000815250600190805190602001906200002b9291906200011f565b506040518060400160405280600381526020017f49544b000000000000000000000000000000000000000000000000000000000081525060029080519060200190620000799291906200011f565b506012600360006101000a81548160ff021916908360ff160217905550600360009054906101000a900460ff16600a620000b491906200022a565b6103e8620000c3919062000367565b600455348015620000d357600080fd5b506004546000803373ffffffffffffffffffffffffffffffffffffffff1673ffffffffffffffffffffffffffffffffffffffff1681526020019081526020016000208190555062000480565b8280546200012d90620003df565b90600052602060002090601f0160209004810192826200015157600085556200019d565b82601f106200016c57805160ff19168380011785556200019d565b828001600101855582156200019d579182015b828111156200019c5782518255916020019190600101906200017f565b5b509050620001ac9190620001b0565b5090565b5b80821115620001cb576000816000905550600101620001b1565b5090565b6000808291508390505b60018511156200022157808604811115620001f957620001f862000415565b5b6001851615620002095780820291505b8081029050620002198562000473565b9450620001d9565b94509492505050565b60006200023782620003c8565b91506200024483620003d2565b9250620002737fffffffffffffffffffffffffffffffffffffffffffffffffffffffffffffffff84846200027b565b905092915050565b6000826200028d576001905062000360565b816200029d576000905062000360565b8160018114620002b65760028114620002c157620002f7565b600191505062000360565b60ff841115620002d657620002d562000415565b5b8360020a915084821115620002f057620002ef62000415565b5b5062000360565b5060208310610133831016604e8410600b8410161715620003315782820a9050838111156200032b576200032a62000415565b5b62000360565b620003408484846001620001cf565b925090508184048111156200035a576200035962000415565b5b81810290505b9392505050565b60006200037482620003c8565b91506200038183620003c8565b9250817fffffffffffffffffffffffffffffffffffffffffffffffffffffffffffffffff0483118215151615620003bd57620003bc62000415565b5b828202905092915050565b6000819050919050565b600060ff82169050919050565b60006002820490506001821680620003f857607f821691505b602082108114156200040f576200040e62000444565b5b50919050565b7f4e487b7100000000000000000000000000000000000000000000000000000000600052601160045260246000fd5b7f4e487b7100000000000000000000000000000000000000000000000000000000600052602260045260246000fd5b60008160011c9050919050565b6107bb80620004906000396000f3fe608060405234801561001057600080fd5b506004361061007d5760003560e01c8063313ce5671161005b578063313ce567146100ee57806370a082311461010c57806395d89b411461013c578063a9059cbb1461015a5761007d565b806306fdde031461008257806318160ddd146100a057806327e235e3146100be575b600080fd5b61008a61018a565b6040516100979190610530565b60405180910390f35b6100a8610218565b6040516100b59190610552565b60405180910390f35b6100d860048036038101906100d3919061044a565b61021e565b6040516100e59190610552565b60405180910390f35b6100f6610236565b604051610103919061056d565b60405180910390f35b6101266004803603810190610121919061044a565b610249565b6040516101339190610552565b60405180910390f35b610144610291565b6040516101519190610530565b60405180910390f35b610174600480360381019061016f9190610473565b61031f565b6040516101819190610515565b60405180910390f35b60018054610197906106b6565b80601f01602080910402602001604051908101604052809291908181526020018280546101c3906106b6565b80156102105780601f106101e557610100808354040283529160200191610210565b820191906000526020600020905b8154815290600101906020018083116101f357829003601f168201915b505050505081565b60045481565b60006020528060005260406000206000915090505481565b600360009054906101000a900460ff1681565b60008060008373ffffffffffffffffffffffffffffffffffffffff1673ffffffffffffffffffffffffffffffffffffffff168152602001908152602001600020549050919050565b6002805461029e906106b6565b80601f01602080910402602001604051908101604052809291908181526020018280546102ca906106b6565b80156103175780601f106102ec57610100808354040283529160200191610317565b820191906000526020600020905b8154815290600101906020018083116102fa57829003601f168201915b505050505081565b6000816000803373ffffffffffffffffffffffffffffffffffffffff1673ffffffffffffffffffffffffffffffffffffffff16815260200190815260200160002054101561036c57600080fd5b816000803373ffffffffffffffffffffffffffffffffffffffff1673ffffffffffffffffffffffffffffffffffffffff16815260200190815260200160002060008282546103ba91906105fa565b92505081905550816000808573ffffffffffffffffffffffffffffffffffffffff1673ffffffffffffffffffffffffffffffffffffffff168152602001908152602001600020600082825461040f91906105a4565b925050819055506001905092915050565b60008135905061042f81610757565b92915050565b6000813590506104448161076e565b92915050565b60006020828403121561045c57600080fd5b600061046a84828501610420565b91505092915050565b6000806040838503121561048657600080fd5b600061049485828601610420565b92505060206104a585828601610435565b9150509250929050565b6104b881610640565b82525050565b60006104c982610588565b6104d38185610593565b93506104e3818560208601610683565b6104ec81610746565b840191505092915050565b6105008161066c565b82525050565b61050f81610676565b82525050565b600060208201905061052a60008301846104af565b92915050565b6000602082019050818103600083015261054a81846104be565b905092915050565b600060208201905061056760008301846104f7565b92915050565b60006020820190506105826000830184610506565b92915050565b600081519050919050565b600082825260208201905092915050565b60006105af8261066c565b91506105ba8361066c565b9250827fffffffffffffffffffffffffffffffffffffffffffffffffffffffffffffffff038211156105ef576105ee6106e8565b5b828201905092915050565b60006106058261066c565b91506106108361066c565b925082821015610623576106226106e8565b5b828203905092915050565b60006106398261064c565b9050919050565b60008115159050919050565b600073ffffffffffffffffffffffffffffffffffffffff82169050919050565b6000819050919050565b600060ff82169050919050565b60005b838110156106a1578082015181840152602081019050610686565b838111156106b0576000848401525b50505050565b600060028204905060018216806106ce57607f821691505b602082108114156106e2576106e1610717565b5b50919050565b7f4e487b7100000000000000000000000000000000000000000000000000000000600052601160045260246000fd5b7f4e487b7100000000000000000000000000000000000000000000000000000000600052602260045260246000fd5b6000601f19601f8301169050919050565b6107608161062e565b811461076b57600080fd5b50565b6107778161066c565b811461078257600080fd5b5056fea2646970667358221220c5bb79ffb8064d3289b31f96fd1ebb5f3254015d157409ea4244e19749c1652164736f6c63430008000033",
  "immutableReferences": {},
  "source": "// SPDX-License-Identifier: MIT\npragma solidity ^0.8.0;\n\ncontract IngToken {\n\n    mapping(address=>uint256) public balances;\n\n    string public name = '';\n    string public symbol = 'ITK';\n    // symbol : ex) BTC, ETH ...\n    uint8 public decimals = 18;\n    uint256 public totalSupply = 1000 * 10 ** decimals; //  \n\n    constructor(){\n        balances[msg.sender] = totalSupply; \n    }\n\n    function balanceOf(address _account) public view returns(uint256 balance){\n        return balances[_account];\n    }\n\n    function transfer(address _to, uint256 _value) public returns(bool){\n        require(balances[msg.sender] >= _value);\n\n        balances[msg.sender] -= _value;\n        balances[_to] += _value;\n        return true;\n    }\n}",
  "sourcePath": "/Users/mac/Desktop/KGA/TypeScript/ethereum/230526/contracts/IngToken.sol",
  "compiler": {
    "name": "solc",
    "version": "0.8.0+commit.c7dfd78e.Emscripten.clang"
  },
  "schemaVersion": "3.4.14",
  "updatedAt": "2023-05-26T03:23:26.653Z",
  "networkType": "ethereum",
  "devdoc": {
    "kind": "dev",
    "methods": {},
    "version": 1
  },
  "userdoc": {
    "kind": "user",
    "methods": {},
    "version": 1
  }
}