{
	"lec17.sol": {
		"lec17": {
			"abi": [
				{
					"inputs": [
						{
							"internalType": "uint256",
							"name": "_index",
							"type": "uint256"
						}
					],
					"name": "getAge",
					"outputs": [
						{
							"internalType": "uint256",
							"name": "",
							"type": "uint256"
						}
					],
					"stateMutability": "view",
					"type": "function"
				},
				{
					"inputs": [
						{
							"internalType": "string",
							"name": "_itemName",
							"type": "string"
						}
					],
					"name": "getPriceList",
					"outputs": [
						{
							"internalType": "uint256",
							"name": "",
							"type": "uint256"
						}
					],
					"stateMutability": "nonpayable",
					"type": "function"
				},
				{
					"inputs": [
						{
							"internalType": "uint256",
							"name": "_index",
							"type": "uint256"
						},
						{
							"internalType": "uint256",
							"name": "_age",
							"type": "uint256"
						}
					],
					"name": "setAgeList",
					"outputs": [],
					"stateMutability": "nonpayable",
					"type": "function"
				},
				{
					"inputs": [
						{
							"internalType": "string",
							"name": "_itemName",
							"type": "string"
						},
						{
							"internalType": "uint256",
							"name": "_price",
							"type": "uint256"
						}
					],
					"name": "setPriceList",
					"outputs": [],
					"stateMutability": "nonpayable",
					"type": "function"
				}
			],
			"devdoc": {
				"kind": "dev",
				"methods": {},
				"version": 1
			},
			"evm": {
				"assembly": "    /* \"lec17.sol\":58:673  contract lec17 {... */\n  mstore(0x40, 0x80)\n  callvalue\n  dup1\n  iszero\n  tag_1\n  jumpi\n  0x00\n  dup1\n  revert\ntag_1:\n  pop\n  dataSize(sub_0)\n  dup1\n  dataOffset(sub_0)\n  0x00\n  codecopy\n  0x00\n  return\nstop\n\nsub_0: assembly {\n        /* \"lec17.sol\":58:673  contract lec17 {... */\n      mstore(0x40, 0x80)\n      callvalue\n      dup1\n      iszero\n      tag_1\n      jumpi\n      0x00\n      dup1\n      revert\n    tag_1:\n      pop\n      jumpi(tag_2, lt(calldatasize, 0x04))\n      shr(0xe0, calldataload(0x00))\n      dup1\n      0x0e37008a\n      eq\n      tag_3\n      jumpi\n      dup1\n      0x5eac9098\n      eq\n      tag_4\n      jumpi\n      dup1\n      0xa266f6c2\n      eq\n      tag_5\n      jumpi\n      dup1\n      0xfe093d3b\n      eq\n      tag_6\n      jumpi\n    tag_2:\n      0x00\n      dup1\n      revert\n        /* \"lec17.sol\":330:429  function getAge(uint256 _index) public view returns(uint256){... */\n    tag_3:\n      tag_7\n      0x04\n      dup1\n      calldatasize\n      sub\n      dup2\n      add\n      swap1\n      tag_8\n      swap2\n      swap1\n      tag_9\n      jump\t// in\n    tag_8:\n      tag_10\n      jump\t// in\n    tag_7:\n      mload(0x40)\n      tag_11\n      swap2\n      swap1\n      tag_12\n      jump\t// in\n    tag_11:\n      mload(0x40)\n      dup1\n      swap2\n      sub\n      swap1\n      return\n        /* \"lec17.sol\":557:671  function getPriceList(string memory _itemName) public returns(uint256){... */\n    tag_4:\n      tag_13\n      0x04\n      dup1\n      calldatasize\n      sub\n      dup2\n      add\n      swap1\n      tag_14\n      swap2\n      swap1\n      tag_15\n      jump\t// in\n    tag_14:\n      tag_16\n      jump\t// in\n    tag_13:\n      mload(0x40)\n      tag_17\n      swap2\n      swap1\n      tag_12\n      jump\t// in\n    tag_17:\n      mload(0x40)\n      dup1\n      swap2\n      sub\n      swap1\n      return\n        /* \"lec17.sol\":435:551  function setPriceList(string memory _itemName, uint256 _price) public {... */\n    tag_5:\n      tag_18\n      0x04\n      dup1\n      calldatasize\n      sub\n      dup2\n      add\n      swap1\n      tag_19\n      swap2\n      swap1\n      tag_20\n      jump\t// in\n    tag_19:\n      tag_21\n      jump\t// in\n    tag_18:\n      stop\n        /* \"lec17.sol\":229:324  function setAgeList(uint256 _index, uint256 _age) public{... */\n    tag_6:\n      tag_22\n      0x04\n      dup1\n      calldatasize\n      sub\n      dup2\n      add\n      swap1\n      tag_23\n      swap2\n      swap1\n      tag_24\n      jump\t// in\n    tag_23:\n      tag_25\n      jump\t// in\n    tag_22:\n      stop\n        /* \"lec17.sol\":330:429  function getAge(uint256 _index) public view returns(uint256){... */\n    tag_10:\n        /* \"lec17.sol\":382:389  uint256 */\n      0x00\n        /* \"lec17.sol\":407:414  ageList */\n      dup1\n        /* \"lec17.sol\":407:422  ageList[_index] */\n      0x00\n        /* \"lec17.sol\":415:421  _index */\n      dup4\n        /* \"lec17.sol\":407:422  ageList[_index] */\n      dup2\n      mstore\n      0x20\n      add\n      swap1\n      dup2\n      mstore\n      0x20\n      add\n      0x00\n      keccak256\n      sload\n        /* \"lec17.sol\":400:422  return ageList[_index] */\n      swap1\n      pop\n        /* \"lec17.sol\":330:429  function getAge(uint256 _index) public view returns(uint256){... */\n      swap2\n      swap1\n      pop\n      jump\t// out\n        /* \"lec17.sol\":557:671  function getPriceList(string memory _itemName) public returns(uint256){... */\n    tag_16:\n        /* \"lec17.sol\":619:626  uint256 */\n      0x00\n        /* \"lec17.sol\":644:653  priceList */\n      0x01\n        /* \"lec17.sol\":654:663  _itemName */\n      dup3\n        /* \"lec17.sol\":644:664  priceList[_itemName] */\n      mload(0x40)\n      tag_28\n      swap2\n      swap1\n      tag_29\n      jump\t// in\n    tag_28:\n      swap1\n      dup2\n      mstore\n      0x20\n      add\n      mload(0x40)\n      dup1\n      swap2\n      sub\n      swap1\n      keccak256\n      sload\n        /* \"lec17.sol\":637:664  return priceList[_itemName] */\n      swap1\n      pop\n        /* \"lec17.sol\":557:671  function getPriceList(string memory _itemName) public returns(uint256){... */\n      swap2\n      swap1\n      pop\n      jump\t// out\n        /* \"lec17.sol\":435:551  function setPriceList(string memory _itemName, uint256 _price) public {... */\n    tag_21:\n        /* \"lec17.sol\":538:544  _price */\n      dup1\n        /* \"lec17.sol\":515:524  priceList */\n      0x01\n        /* \"lec17.sol\":525:534  _itemName */\n      dup4\n        /* \"lec17.sol\":515:535  priceList[_itemName] */\n      mload(0x40)\n      tag_31\n      swap2\n      swap1\n      tag_29\n      jump\t// in\n    tag_31:\n      swap1\n      dup2\n      mstore\n      0x20\n      add\n      mload(0x40)\n      dup1\n      swap2\n      sub\n      swap1\n      keccak256\n        /* \"lec17.sol\":515:544  priceList[_itemName] = _price */\n      dup2\n      swap1\n      sstore\n      pop\n        /* \"lec17.sol\":435:551  function setPriceList(string memory _itemName, uint256 _price) public {... */\n      pop\n      pop\n      jump\t// out\n        /* \"lec17.sol\":229:324  function setAgeList(uint256 _index, uint256 _age) public{... */\n    tag_25:\n        /* \"lec17.sol\":313:317  _age */\n      dup1\n        /* \"lec17.sol\":295:302  ageList */\n      0x00\n        /* \"lec17.sol\":295:310  ageList[_index] */\n      dup1\n        /* \"lec17.sol\":303:309  _index */\n      dup5\n        /* \"lec17.sol\":295:310  ageList[_index] */\n      dup2\n      mstore\n      0x20\n      add\n      swap1\n      dup2\n      mstore\n      0x20\n      add\n      0x00\n      keccak256\n        /* \"lec17.sol\":295:317  ageList[_index] = _age */\n      dup2\n      swap1\n      sstore\n      pop\n        /* \"lec17.sol\":229:324  function setAgeList(uint256 _index, uint256 _age) public{... */\n      pop\n      pop\n      jump\t// out\n        /* \"#utility.yul\":7:82   */\n    tag_33:\n        /* \"#utility.yul\":40:46   */\n      0x00\n        /* \"#utility.yul\":73:75   */\n      0x40\n        /* \"#utility.yul\":67:76   */\n      mload\n        /* \"#utility.yul\":57:76   */\n      swap1\n      pop\n        /* \"#utility.yul\":7:82   */\n      swap1\n      jump\t// out\n        /* \"#utility.yul\":88:205   */\n    tag_34:\n        /* \"#utility.yul\":197:198   */\n      0x00\n        /* \"#utility.yul\":194:195   */\n      dup1\n        /* \"#utility.yul\":187:199   */\n      revert\n        /* \"#utility.yul\":211:328   */\n    tag_35:\n        /* \"#utility.yul\":320:321   */\n      0x00\n        /* \"#utility.yul\":317:318   */\n      dup1\n        /* \"#utility.yul\":310:322   */\n      revert\n        /* \"#utility.yul\":334:411   */\n    tag_36:\n        /* \"#utility.yul\":371:378   */\n      0x00\n        /* \"#utility.yul\":400:405   */\n      dup2\n        /* \"#utility.yul\":389:405   */\n      swap1\n      pop\n        /* \"#utility.yul\":334:411   */\n      swap2\n      swap1\n      pop\n      jump\t// out\n        /* \"#utility.yul\":417:539   */\n    tag_37:\n        /* \"#utility.yul\":490:514   */\n      tag_60\n        /* \"#utility.yul\":508:513   */\n      dup2\n        /* \"#utility.yul\":490:514   */\n      tag_36\n      jump\t// in\n    tag_60:\n        /* \"#utility.yul\":483:488   */\n      dup2\n        /* \"#utility.yul\":480:515   */\n      eq\n        /* \"#utility.yul\":470:533   */\n      tag_61\n      jumpi\n        /* \"#utility.yul\":529:530   */\n      0x00\n        /* \"#utility.yul\":526:527   */\n      dup1\n        /* \"#utility.yul\":519:531   */\n      revert\n        /* \"#utility.yul\":470:533   */\n    tag_61:\n        /* \"#utility.yul\":417:539   */\n      pop\n      jump\t// out\n        /* \"#utility.yul\":545:684   */\n    tag_38:\n        /* \"#utility.yul\":591:596   */\n      0x00\n        /* \"#utility.yul\":629:635   */\n      dup2\n        /* \"#utility.yul\":616:636   */\n      calldataload\n        /* \"#utility.yul\":607:636   */\n      swap1\n      pop\n        /* \"#utility.yul\":645:678   */\n      tag_63\n        /* \"#utility.yul\":672:677   */\n      dup2\n        /* \"#utility.yul\":645:678   */\n      tag_37\n      jump\t// in\n    tag_63:\n        /* \"#utility.yul\":545:684   */\n      swap3\n      swap2\n      pop\n      pop\n      jump\t// out\n        /* \"#utility.yul\":690:1019   */\n    tag_9:\n        /* \"#utility.yul\":749:755   */\n      0x00\n        /* \"#utility.yul\":798:800   */\n      0x20\n        /* \"#utility.yul\":786:795   */\n      dup3\n        /* \"#utility.yul\":777:784   */\n      dup5\n        /* \"#utility.yul\":773:796   */\n      sub\n        /* \"#utility.yul\":769:801   */\n      slt\n        /* \"#utility.yul\":766:885   */\n      iszero\n      tag_65\n      jumpi\n        /* \"#utility.yul\":804:883   */\n      tag_66\n      tag_34\n      jump\t// in\n    tag_66:\n        /* \"#utility.yul\":766:885   */\n    tag_65:\n        /* \"#utility.yul\":924:925   */\n      0x00\n        /* \"#utility.yul\":949:1002   */\n      tag_67\n        /* \"#utility.yul\":994:1001   */\n      dup5\n        /* \"#utility.yul\":985:991   */\n      dup3\n        /* \"#utility.yul\":974:983   */\n      dup6\n        /* \"#utility.yul\":970:992   */\n      add\n        /* \"#utility.yul\":949:1002   */\n      tag_38\n      jump\t// in\n    tag_67:\n        /* \"#utility.yul\":939:1002   */\n      swap2\n      pop\n        /* \"#utility.yul\":895:1012   */\n      pop\n        /* \"#utility.yul\":690:1019   */\n      swap3\n      swap2\n      pop\n      pop\n      jump\t// out\n        /* \"#utility.yul\":1025:1143   */\n    tag_39:\n        /* \"#utility.yul\":1112:1136   */\n      tag_69\n        /* \"#utility.yul\":1130:1135   */\n      dup2\n        /* \"#utility.yul\":1112:1136   */\n      tag_36\n      jump\t// in\n    tag_69:\n        /* \"#utility.yul\":1107:1110   */\n      dup3\n        /* \"#utility.yul\":1100:1137   */\n      mstore\n        /* \"#utility.yul\":1025:1143   */\n      pop\n      pop\n      jump\t// out\n        /* \"#utility.yul\":1149:1371   */\n    tag_12:\n        /* \"#utility.yul\":1242:1246   */\n      0x00\n        /* \"#utility.yul\":1280:1282   */\n      0x20\n        /* \"#utility.yul\":1269:1278   */\n      dup3\n        /* \"#utility.yul\":1265:1283   */\n      add\n        /* \"#utility.yul\":1257:1283   */\n      swap1\n      pop\n        /* \"#utility.yul\":1293:1364   */\n      tag_71\n        /* \"#utility.yul\":1361:1362   */\n      0x00\n        /* \"#utility.yul\":1350:1359   */\n      dup4\n        /* \"#utility.yul\":1346:1363   */\n      add\n        /* \"#utility.yul\":1337:1343   */\n      dup5\n        /* \"#utility.yul\":1293:1364   */\n      tag_39\n      jump\t// in\n    tag_71:\n        /* \"#utility.yul\":1149:1371   */\n      swap3\n      swap2\n      pop\n      pop\n      jump\t// out\n        /* \"#utility.yul\":1377:1494   */\n    tag_40:\n        /* \"#utility.yul\":1486:1487   */\n      0x00\n        /* \"#utility.yul\":1483:1484   */\n      dup1\n        /* \"#utility.yul\":1476:1488   */\n      revert\n        /* \"#utility.yul\":1500:1617   */\n    tag_41:\n        /* \"#utility.yul\":1609:1610   */\n      0x00\n        /* \"#utility.yul\":1606:1607   */\n      dup1\n        /* \"#utility.yul\":1599:1611   */\n      revert\n        /* \"#utility.yul\":1623:1725   */\n    tag_42:\n        /* \"#utility.yul\":1664:1670   */\n      0x00\n        /* \"#utility.yul\":1715:1717   */\n      0x1f\n        /* \"#utility.yul\":1711:1718   */\n      not\n        /* \"#utility.yul\":1706:1708   */\n      0x1f\n        /* \"#utility.yul\":1699:1704   */\n      dup4\n        /* \"#utility.yul\":1695:1709   */\n      add\n        /* \"#utility.yul\":1691:1719   */\n      and\n        /* \"#utility.yul\":1681:1719   */\n      swap1\n      pop\n        /* \"#utility.yul\":1623:1725   */\n      swap2\n      swap1\n      pop\n      jump\t// out\n        /* \"#utility.yul\":1731:1911   */\n    tag_43:\n        /* \"#utility.yul\":1779:1856   */\n      0x4e487b7100000000000000000000000000000000000000000000000000000000\n        /* \"#utility.yul\":1776:1777   */\n      0x00\n        /* \"#utility.yul\":1769:1857   */\n      mstore\n        /* \"#utility.yul\":1876:1880   */\n      0x41\n        /* \"#utility.yul\":1873:1874   */\n      0x04\n        /* \"#utility.yul\":1866:1881   */\n      mstore\n        /* \"#utility.yul\":1900:1904   */\n      0x24\n        /* \"#utility.yul\":1897:1898   */\n      0x00\n        /* \"#utility.yul\":1890:1905   */\n      revert\n        /* \"#utility.yul\":1917:2198   */\n    tag_44:\n        /* \"#utility.yul\":2000:2027   */\n      tag_77\n        /* \"#utility.yul\":2022:2026   */\n      dup3\n        /* \"#utility.yul\":2000:2027   */\n      tag_42\n      jump\t// in\n    tag_77:\n        /* \"#utility.yul\":1992:1998   */\n      dup2\n        /* \"#utility.yul\":1988:2028   */\n      add\n        /* \"#utility.yul\":2130:2136   */\n      dup2\n        /* \"#utility.yul\":2118:2128   */\n      dup2\n        /* \"#utility.yul\":2115:2137   */\n      lt\n        /* \"#utility.yul\":2094:2112   */\n      0xffffffffffffffff\n        /* \"#utility.yul\":2082:2092   */\n      dup3\n        /* \"#utility.yul\":2079:2113   */\n      gt\n        /* \"#utility.yul\":2076:2138   */\n      or\n        /* \"#utility.yul\":2073:2161   */\n      iszero\n      tag_78\n      jumpi\n        /* \"#utility.yul\":2141:2159   */\n      tag_79\n      tag_43\n      jump\t// in\n    tag_79:\n        /* \"#utility.yul\":2073:2161   */\n    tag_78:\n        /* \"#utility.yul\":2181:2191   */\n      dup1\n        /* \"#utility.yul\":2177:2179   */\n      0x40\n        /* \"#utility.yul\":2170:2192   */\n      mstore\n        /* \"#utility.yul\":1960:2198   */\n      pop\n        /* \"#utility.yul\":1917:2198   */\n      pop\n      pop\n      jump\t// out\n        /* \"#utility.yul\":2204:2333   */\n    tag_45:\n        /* \"#utility.yul\":2238:2244   */\n      0x00\n        /* \"#utility.yul\":2265:2285   */\n      tag_81\n      tag_33\n      jump\t// in\n    tag_81:\n        /* \"#utility.yul\":2255:2285   */\n      swap1\n      pop\n        /* \"#utility.yul\":2294:2327   */\n      tag_82\n        /* \"#utility.yul\":2322:2326   */\n      dup3\n        /* \"#utility.yul\":2314:2320   */\n      dup3\n        /* \"#utility.yul\":2294:2327   */\n      tag_44\n      jump\t// in\n    tag_82:\n        /* \"#utility.yul\":2204:2333   */\n      swap2\n      swap1\n      pop\n      jump\t// out\n        /* \"#utility.yul\":2339:2647   */\n    tag_46:\n        /* \"#utility.yul\":2401:2405   */\n      0x00\n        /* \"#utility.yul\":2491:2509   */\n      0xffffffffffffffff\n        /* \"#utility.yul\":2483:2489   */\n      dup3\n        /* \"#utility.yul\":2480:2510   */\n      gt\n        /* \"#utility.yul\":2477:2533   */\n      iszero\n      tag_84\n      jumpi\n        /* \"#utility.yul\":2513:2531   */\n      tag_85\n      tag_43\n      jump\t// in\n    tag_85:\n        /* \"#utility.yul\":2477:2533   */\n    tag_84:\n        /* \"#utility.yul\":2551:2580   */\n      tag_86\n        /* \"#utility.yul\":2573:2579   */\n      dup3\n        /* \"#utility.yul\":2551:2580   */\n      tag_42\n      jump\t// in\n    tag_86:\n        /* \"#utility.yul\":2543:2580   */\n      swap1\n      pop\n        /* \"#utility.yul\":2635:2639   */\n      0x20\n        /* \"#utility.yul\":2629:2633   */\n      dup2\n        /* \"#utility.yul\":2625:2640   */\n      add\n        /* \"#utility.yul\":2617:2640   */\n      swap1\n      pop\n        /* \"#utility.yul\":2339:2647   */\n      swap2\n      swap1\n      pop\n      jump\t// out\n        /* \"#utility.yul\":2653:2799   */\n    tag_47:\n        /* \"#utility.yul\":2750:2756   */\n      dup3\n        /* \"#utility.yul\":2745:2748   */\n      dup2\n        /* \"#utility.yul\":2740:2743   */\n      dup4\n        /* \"#utility.yul\":2727:2757   */\n      calldatacopy\n        /* \"#utility.yul\":2791:2792   */\n      0x00\n        /* \"#utility.yul\":2782:2788   */\n      dup4\n        /* \"#utility.yul\":2777:2780   */\n      dup4\n        /* \"#utility.yul\":2773:2789   */\n      add\n        /* \"#utility.yul\":2766:2793   */\n      mstore\n        /* \"#utility.yul\":2653:2799   */\n      pop\n      pop\n      pop\n      jump\t// out\n        /* \"#utility.yul\":2805:3230   */\n    tag_48:\n        /* \"#utility.yul\":2883:2888   */\n      0x00\n        /* \"#utility.yul\":2908:2974   */\n      tag_89\n        /* \"#utility.yul\":2924:2973   */\n      tag_90\n        /* \"#utility.yul\":2966:2972   */\n      dup5\n        /* \"#utility.yul\":2924:2973   */\n      tag_46\n      jump\t// in\n    tag_90:\n        /* \"#utility.yul\":2908:2974   */\n      tag_45\n      jump\t// in\n    tag_89:\n        /* \"#utility.yul\":2899:2974   */\n      swap1\n      pop\n        /* \"#utility.yul\":2997:3003   */\n      dup3\n        /* \"#utility.yul\":2990:2995   */\n      dup2\n        /* \"#utility.yul\":2983:3004   */\n      mstore\n        /* \"#utility.yul\":3035:3039   */\n      0x20\n        /* \"#utility.yul\":3028:3033   */\n      dup2\n        /* \"#utility.yul\":3024:3040   */\n      add\n        /* \"#utility.yul\":3073:3076   */\n      dup5\n        /* \"#utility.yul\":3064:3070   */\n      dup5\n        /* \"#utility.yul\":3059:3062   */\n      dup5\n        /* \"#utility.yul\":3055:3071   */\n      add\n        /* \"#utility.yul\":3052:3077   */\n      gt\n        /* \"#utility.yul\":3049:3161   */\n      iszero\n      tag_91\n      jumpi\n        /* \"#utility.yul\":3080:3159   */\n      tag_92\n      tag_41\n      jump\t// in\n    tag_92:\n        /* \"#utility.yul\":3049:3161   */\n    tag_91:\n        /* \"#utility.yul\":3170:3224   */\n      tag_93\n        /* \"#utility.yul\":3217:3223   */\n      dup5\n        /* \"#utility.yul\":3212:3215   */\n      dup3\n        /* \"#utility.yul\":3207:3210   */\n      dup6\n        /* \"#utility.yul\":3170:3224   */\n      tag_47\n      jump\t// in\n    tag_93:\n        /* \"#utility.yul\":2889:3230   */\n      pop\n        /* \"#utility.yul\":2805:3230   */\n      swap4\n      swap3\n      pop\n      pop\n      pop\n      jump\t// out\n        /* \"#utility.yul\":3250:3590   */\n    tag_49:\n        /* \"#utility.yul\":3306:3311   */\n      0x00\n        /* \"#utility.yul\":3355:3358   */\n      dup3\n        /* \"#utility.yul\":3348:3352   */\n      0x1f\n        /* \"#utility.yul\":3340:3346   */\n      dup4\n        /* \"#utility.yul\":3336:3353   */\n      add\n        /* \"#utility.yul\":3332:3359   */\n      slt\n        /* \"#utility.yul\":3322:3444   */\n      tag_95\n      jumpi\n        /* \"#utility.yul\":3363:3442   */\n      tag_96\n      tag_40\n      jump\t// in\n    tag_96:\n        /* \"#utility.yul\":3322:3444   */\n    tag_95:\n        /* \"#utility.yul\":3480:3486   */\n      dup2\n        /* \"#utility.yul\":3467:3487   */\n      calldataload\n        /* \"#utility.yul\":3505:3584   */\n      tag_97\n        /* \"#utility.yul\":3580:3583   */\n      dup5\n        /* \"#utility.yul\":3572:3578   */\n      dup3\n        /* \"#utility.yul\":3565:3569   */\n      0x20\n        /* \"#utility.yul\":3557:3563   */\n      dup7\n        /* \"#utility.yul\":3553:3570   */\n      add\n        /* \"#utility.yul\":3505:3584   */\n      tag_48\n      jump\t// in\n    tag_97:\n        /* \"#utility.yul\":3496:3584   */\n      swap2\n      pop\n        /* \"#utility.yul\":3312:3590   */\n      pop\n        /* \"#utility.yul\":3250:3590   */\n      swap3\n      swap2\n      pop\n      pop\n      jump\t// out\n        /* \"#utility.yul\":3596:4105   */\n    tag_15:\n        /* \"#utility.yul\":3665:3671   */\n      0x00\n        /* \"#utility.yul\":3714:3716   */\n      0x20\n        /* \"#utility.yul\":3702:3711   */\n      dup3\n        /* \"#utility.yul\":3693:3700   */\n      dup5\n        /* \"#utility.yul\":3689:3712   */\n      sub\n        /* \"#utility.yul\":3685:3717   */\n      slt\n        /* \"#utility.yul\":3682:3801   */\n      iszero\n      tag_99\n      jumpi\n        /* \"#utility.yul\":3720:3799   */\n      tag_100\n      tag_34\n      jump\t// in\n    tag_100:\n        /* \"#utility.yul\":3682:3801   */\n    tag_99:\n        /* \"#utility.yul\":3868:3869   */\n      0x00\n        /* \"#utility.yul\":3857:3866   */\n      dup3\n        /* \"#utility.yul\":3853:3870   */\n      add\n        /* \"#utility.yul\":3840:3871   */\n      calldataload\n        /* \"#utility.yul\":3898:3916   */\n      0xffffffffffffffff\n        /* \"#utility.yul\":3890:3896   */\n      dup2\n        /* \"#utility.yul\":3887:3917   */\n      gt\n        /* \"#utility.yul\":3884:4001   */\n      iszero\n      tag_101\n      jumpi\n        /* \"#utility.yul\":3920:3999   */\n      tag_102\n      tag_35\n      jump\t// in\n    tag_102:\n        /* \"#utility.yul\":3884:4001   */\n    tag_101:\n        /* \"#utility.yul\":4025:4088   */\n      tag_103\n        /* \"#utility.yul\":4080:4087   */\n      dup5\n        /* \"#utility.yul\":4071:4077   */\n      dup3\n        /* \"#utility.yul\":4060:4069   */\n      dup6\n        /* \"#utility.yul\":4056:4078   */\n      add\n        /* \"#utility.yul\":4025:4088   */\n      tag_49\n      jump\t// in\n    tag_103:\n        /* \"#utility.yul\":4015:4088   */\n      swap2\n      pop\n        /* \"#utility.yul\":3811:4098   */\n      pop\n        /* \"#utility.yul\":3596:4105   */\n      swap3\n      swap2\n      pop\n      pop\n      jump\t// out\n        /* \"#utility.yul\":4111:4765   */\n    tag_20:\n        /* \"#utility.yul\":4189:4195   */\n      0x00\n        /* \"#utility.yul\":4197:4203   */\n      dup1\n        /* \"#utility.yul\":4246:4248   */\n      0x40\n        /* \"#utility.yul\":4234:4243   */\n      dup4\n        /* \"#utility.yul\":4225:4232   */\n      dup6\n        /* \"#utility.yul\":4221:4244   */\n      sub\n        /* \"#utility.yul\":4217:4249   */\n      slt\n        /* \"#utility.yul\":4214:4333   */\n      iszero\n      tag_105\n      jumpi\n        /* \"#utility.yul\":4252:4331   */\n      tag_106\n      tag_34\n      jump\t// in\n    tag_106:\n        /* \"#utility.yul\":4214:4333   */\n    tag_105:\n        /* \"#utility.yul\":4400:4401   */\n      0x00\n        /* \"#utility.yul\":4389:4398   */\n      dup4\n        /* \"#utility.yul\":4385:4402   */\n      add\n        /* \"#utility.yul\":4372:4403   */\n      calldataload\n        /* \"#utility.yul\":4430:4448   */\n      0xffffffffffffffff\n        /* \"#utility.yul\":4422:4428   */\n      dup2\n        /* \"#utility.yul\":4419:4449   */\n      gt\n        /* \"#utility.yul\":4416:4533   */\n      iszero\n      tag_107\n      jumpi\n        /* \"#utility.yul\":4452:4531   */\n      tag_108\n      tag_35\n      jump\t// in\n    tag_108:\n        /* \"#utility.yul\":4416:4533   */\n    tag_107:\n        /* \"#utility.yul\":4557:4620   */\n      tag_109\n        /* \"#utility.yul\":4612:4619   */\n      dup6\n        /* \"#utility.yul\":4603:4609   */\n      dup3\n        /* \"#utility.yul\":4592:4601   */\n      dup7\n        /* \"#utility.yul\":4588:4610   */\n      add\n        /* \"#utility.yul\":4557:4620   */\n      tag_49\n      jump\t// in\n    tag_109:\n        /* \"#utility.yul\":4547:4620   */\n      swap3\n      pop\n        /* \"#utility.yul\":4343:4630   */\n      pop\n        /* \"#utility.yul\":4669:4671   */\n      0x20\n        /* \"#utility.yul\":4695:4748   */\n      tag_110\n        /* \"#utility.yul\":4740:4747   */\n      dup6\n        /* \"#utility.yul\":4731:4737   */\n      dup3\n        /* \"#utility.yul\":4720:4729   */\n      dup7\n        /* \"#utility.yul\":4716:4738   */\n      add\n        /* \"#utility.yul\":4695:4748   */\n      tag_38\n      jump\t// in\n    tag_110:\n        /* \"#utility.yul\":4685:4748   */\n      swap2\n      pop\n        /* \"#utility.yul\":4640:4758   */\n      pop\n        /* \"#utility.yul\":4111:4765   */\n      swap3\n      pop\n      swap3\n      swap1\n      pop\n      jump\t// out\n        /* \"#utility.yul\":4771:5245   */\n    tag_24:\n        /* \"#utility.yul\":4839:4845   */\n      0x00\n        /* \"#utility.yul\":4847:4853   */\n      dup1\n        /* \"#utility.yul\":4896:4898   */\n      0x40\n        /* \"#utility.yul\":4884:4893   */\n      dup4\n        /* \"#utility.yul\":4875:4882   */\n      dup6\n        /* \"#utility.yul\":4871:4894   */\n      sub\n        /* \"#utility.yul\":4867:4899   */\n      slt\n        /* \"#utility.yul\":4864:4983   */\n      iszero\n      tag_112\n      jumpi\n        /* \"#utility.yul\":4902:4981   */\n      tag_113\n      tag_34\n      jump\t// in\n    tag_113:\n        /* \"#utility.yul\":4864:4983   */\n    tag_112:\n        /* \"#utility.yul\":5022:5023   */\n      0x00\n        /* \"#utility.yul\":5047:5100   */\n      tag_114\n        /* \"#utility.yul\":5092:5099   */\n      dup6\n        /* \"#utility.yul\":5083:5089   */\n      dup3\n        /* \"#utility.yul\":5072:5081   */\n      dup7\n        /* \"#utility.yul\":5068:5090   */\n      add\n        /* \"#utility.yul\":5047:5100   */\n      tag_38\n      jump\t// in\n    tag_114:\n        /* \"#utility.yul\":5037:5100   */\n      swap3\n      pop\n        /* \"#utility.yul\":4993:5110   */\n      pop\n        /* \"#utility.yul\":5149:5151   */\n      0x20\n        /* \"#utility.yul\":5175:5228   */\n      tag_115\n        /* \"#utility.yul\":5220:5227   */\n      dup6\n        /* \"#utility.yul\":5211:5217   */\n      dup3\n        /* \"#utility.yul\":5200:5209   */\n      dup7\n        /* \"#utility.yul\":5196:5218   */\n      add\n        /* \"#utility.yul\":5175:5228   */\n      tag_38\n      jump\t// in\n    tag_115:\n        /* \"#utility.yul\":5165:5228   */\n      swap2\n      pop\n        /* \"#utility.yul\":5120:5238   */\n      pop\n        /* \"#utility.yul\":4771:5245   */\n      swap3\n      pop\n      swap3\n      swap1\n      pop\n      jump\t// out\n        /* \"#utility.yul\":5251:5350   */\n    tag_50:\n        /* \"#utility.yul\":5303:5309   */\n      0x00\n        /* \"#utility.yul\":5337:5342   */\n      dup2\n        /* \"#utility.yul\":5331:5343   */\n      mload\n        /* \"#utility.yul\":5321:5343   */\n      swap1\n      pop\n        /* \"#utility.yul\":5251:5350   */\n      swap2\n      swap1\n      pop\n      jump\t// out\n        /* \"#utility.yul\":5356:5504   */\n    tag_51:\n        /* \"#utility.yul\":5458:5469   */\n      0x00\n        /* \"#utility.yul\":5495:5498   */\n      dup2\n        /* \"#utility.yul\":5480:5498   */\n      swap1\n      pop\n        /* \"#utility.yul\":5356:5504   */\n      swap3\n      swap2\n      pop\n      pop\n      jump\t// out\n        /* \"#utility.yul\":5510:5756   */\n    tag_52:\n        /* \"#utility.yul\":5591:5592   */\n      0x00\n        /* \"#utility.yul\":5601:5714   */\n    tag_119:\n        /* \"#utility.yul\":5615:5621   */\n      dup4\n        /* \"#utility.yul\":5612:5613   */\n      dup2\n        /* \"#utility.yul\":5609:5622   */\n      lt\n        /* \"#utility.yul\":5601:5714   */\n      iszero\n      tag_121\n      jumpi\n        /* \"#utility.yul\":5700:5701   */\n      dup1\n        /* \"#utility.yul\":5695:5698   */\n      dup3\n        /* \"#utility.yul\":5691:5702   */\n      add\n        /* \"#utility.yul\":5685:5703   */\n      mload\n        /* \"#utility.yul\":5681:5682   */\n      dup2\n        /* \"#utility.yul\":5676:5679   */\n      dup5\n        /* \"#utility.yul\":5672:5683   */\n      add\n        /* \"#utility.yul\":5665:5704   */\n      mstore\n        /* \"#utility.yul\":5637:5639   */\n      0x20\n        /* \"#utility.yul\":5634:5635   */\n      dup2\n        /* \"#utility.yul\":5630:5640   */\n      add\n        /* \"#utility.yul\":5625:5640   */\n      swap1\n      pop\n        /* \"#utility.yul\":5601:5714   */\n      jump(tag_119)\n    tag_121:\n        /* \"#utility.yul\":5748:5749   */\n      0x00\n        /* \"#utility.yul\":5739:5745   */\n      dup5\n        /* \"#utility.yul\":5734:5737   */\n      dup5\n        /* \"#utility.yul\":5730:5746   */\n      add\n        /* \"#utility.yul\":5723:5750   */\n      mstore\n        /* \"#utility.yul\":5572:5756   */\n      pop\n        /* \"#utility.yul\":5510:5756   */\n      pop\n      pop\n      pop\n      jump\t// out\n        /* \"#utility.yul\":5762:6152   */\n    tag_53:\n        /* \"#utility.yul\":5868:5871   */\n      0x00\n        /* \"#utility.yul\":5896:5935   */\n      tag_123\n        /* \"#utility.yul\":5929:5934   */\n      dup3\n        /* \"#utility.yul\":5896:5935   */\n      tag_50\n      jump\t// in\n    tag_123:\n        /* \"#utility.yul\":5951:6040   */\n      tag_124\n        /* \"#utility.yul\":6033:6039   */\n      dup2\n        /* \"#utility.yul\":6028:6031   */\n      dup6\n        /* \"#utility.yul\":5951:6040   */\n      tag_51\n      jump\t// in\n    tag_124:\n        /* \"#utility.yul\":5944:6040   */\n      swap4\n      pop\n        /* \"#utility.yul\":6049:6114   */\n      tag_125\n        /* \"#utility.yul\":6107:6113   */\n      dup2\n        /* \"#utility.yul\":6102:6105   */\n      dup6\n        /* \"#utility.yul\":6095:6099   */\n      0x20\n        /* \"#utility.yul\":6088:6093   */\n      dup7\n        /* \"#utility.yul\":6084:6100   */\n      add\n        /* \"#utility.yul\":6049:6114   */\n      tag_52\n      jump\t// in\n    tag_125:\n        /* \"#utility.yul\":6139:6145   */\n      dup1\n        /* \"#utility.yul\":6134:6137   */\n      dup5\n        /* \"#utility.yul\":6130:6146   */\n      add\n        /* \"#utility.yul\":6123:6146   */\n      swap2\n      pop\n        /* \"#utility.yul\":5872:6152   */\n      pop\n        /* \"#utility.yul\":5762:6152   */\n      swap3\n      swap2\n      pop\n      pop\n      jump\t// out\n        /* \"#utility.yul\":6158:6433   */\n    tag_29:\n        /* \"#utility.yul\":6290:6293   */\n      0x00\n        /* \"#utility.yul\":6312:6407   */\n      tag_127\n        /* \"#utility.yul\":6403:6406   */\n      dup3\n        /* \"#utility.yul\":6394:6400   */\n      dup5\n        /* \"#utility.yul\":6312:6407   */\n      tag_53\n      jump\t// in\n    tag_127:\n        /* \"#utility.yul\":6305:6407   */\n      swap2\n      pop\n        /* \"#utility.yul\":6424:6427   */\n      dup2\n        /* \"#utility.yul\":6417:6427   */\n      swap1\n      pop\n        /* \"#utility.yul\":6158:6433   */\n      swap3\n      swap2\n      pop\n      pop\n      jump\t// out\n\n    auxdata: 0xa2646970667358221220fb7fbb8eb2db28242136897e58cd03b4e29493060a8adb287af188dcfe229d9664736f6c63430008120033\n}\n",
				"bytecode": {
					"linkReferences": {},
					"object": "608060405234801561001057600080fd5b506104f9806100206000396000f3fe608060405234801561001057600080fd5b506004361061004c5760003560e01c80630e37008a146100515780635eac909814610081578063a266f6c2146100b1578063fe093d3b146100cd575b600080fd5b61006b600480360381019061006691906101b9565b6100e9565b60405161007891906101f5565b60405180910390f35b61009b60048036038101906100969190610356565b610105565b6040516100a891906101f5565b60405180910390f35b6100cb60048036038101906100c6919061039f565b61012d565b005b6100e760048036038101906100e291906103fb565b610154565b005b6000806000838152602001908152602001600020549050919050565b600060018260405161011791906104ac565b9081526020016040518091039020549050919050565b8060018360405161013e91906104ac565b9081526020016040518091039020819055505050565b80600080848152602001908152602001600020819055505050565b6000604051905090565b600080fd5b600080fd5b6000819050919050565b61019681610183565b81146101a157600080fd5b50565b6000813590506101b38161018d565b92915050565b6000602082840312156101cf576101ce610179565b5b60006101dd848285016101a4565b91505092915050565b6101ef81610183565b82525050565b600060208201905061020a60008301846101e6565b92915050565b600080fd5b600080fd5b6000601f19601f8301169050919050565b7f4e487b7100000000000000000000000000000000000000000000000000000000600052604160045260246000fd5b6102638261021a565b810181811067ffffffffffffffff821117156102825761028161022b565b5b80604052505050565b600061029561016f565b90506102a1828261025a565b919050565b600067ffffffffffffffff8211156102c1576102c061022b565b5b6102ca8261021a565b9050602081019050919050565b82818337600083830152505050565b60006102f96102f4846102a6565b61028b565b90508281526020810184848401111561031557610314610215565b5b6103208482856102d7565b509392505050565b600082601f83011261033d5761033c610210565b5b813561034d8482602086016102e6565b91505092915050565b60006020828403121561036c5761036b610179565b5b600082013567ffffffffffffffff81111561038a5761038961017e565b5b61039684828501610328565b91505092915050565b600080604083850312156103b6576103b5610179565b5b600083013567ffffffffffffffff8111156103d4576103d361017e565b5b6103e085828601610328565b92505060206103f1858286016101a4565b9150509250929050565b6000806040838503121561041257610411610179565b5b6000610420858286016101a4565b9250506020610431858286016101a4565b9150509250929050565b600081519050919050565b600081905092915050565b60005b8381101561046f578082015181840152602081019050610454565b60008484015250505050565b60006104868261043b565b6104908185610446565b93506104a0818560208601610451565b80840191505092915050565b60006104b8828461047b565b91508190509291505056fea2646970667358221220fb7fbb8eb2db28242136897e58cd03b4e29493060a8adb287af188dcfe229d9664736f6c63430008120033",
					"opcodes": "PUSH1 0x80 PUSH1 0x40 MSTORE CALLVALUE DUP1 ISZERO PUSH2 0x10 JUMPI PUSH1 0x0 DUP1 REVERT JUMPDEST POP PUSH2 0x4F9 DUP1 PUSH2 0x20 PUSH1 0x0 CODECOPY PUSH1 0x0 RETURN INVALID PUSH1 0x80 PUSH1 0x40 MSTORE CALLVALUE DUP1 ISZERO PUSH2 0x10 JUMPI PUSH1 0x0 DUP1 REVERT JUMPDEST POP PUSH1 0x4 CALLDATASIZE LT PUSH2 0x4C JUMPI PUSH1 0x0 CALLDATALOAD PUSH1 0xE0 SHR DUP1 PUSH4 0xE37008A EQ PUSH2 0x51 JUMPI DUP1 PUSH4 0x5EAC9098 EQ PUSH2 0x81 JUMPI DUP1 PUSH4 0xA266F6C2 EQ PUSH2 0xB1 JUMPI DUP1 PUSH4 0xFE093D3B EQ PUSH2 0xCD JUMPI JUMPDEST PUSH1 0x0 DUP1 REVERT JUMPDEST PUSH2 0x6B PUSH1 0x4 DUP1 CALLDATASIZE SUB DUP2 ADD SWAP1 PUSH2 0x66 SWAP2 SWAP1 PUSH2 0x1B9 JUMP JUMPDEST PUSH2 0xE9 JUMP JUMPDEST PUSH1 0x40 MLOAD PUSH2 0x78 SWAP2 SWAP1 PUSH2 0x1F5 JUMP JUMPDEST PUSH1 0x40 MLOAD DUP1 SWAP2 SUB SWAP1 RETURN JUMPDEST PUSH2 0x9B PUSH1 0x4 DUP1 CALLDATASIZE SUB DUP2 ADD SWAP1 PUSH2 0x96 SWAP2 SWAP1 PUSH2 0x356 JUMP JUMPDEST PUSH2 0x105 JUMP JUMPDEST PUSH1 0x40 MLOAD PUSH2 0xA8 SWAP2 SWAP1 PUSH2 0x1F5 JUMP JUMPDEST PUSH1 0x40 MLOAD DUP1 SWAP2 SUB SWAP1 RETURN JUMPDEST PUSH2 0xCB PUSH1 0x4 DUP1 CALLDATASIZE SUB DUP2 ADD SWAP1 PUSH2 0xC6 SWAP2 SWAP1 PUSH2 0x39F JUMP JUMPDEST PUSH2 0x12D JUMP JUMPDEST STOP JUMPDEST PUSH2 0xE7 PUSH1 0x4 DUP1 CALLDATASIZE SUB DUP2 ADD SWAP1 PUSH2 0xE2 SWAP2 SWAP1 PUSH2 0x3FB JUMP JUMPDEST PUSH2 0x154 JUMP JUMPDEST STOP JUMPDEST PUSH1 0x0 DUP1 PUSH1 0x0 DUP4 DUP2 MSTORE PUSH1 0x20 ADD SWAP1 DUP2 MSTORE PUSH1 0x20 ADD PUSH1 0x0 KECCAK256 SLOAD SWAP1 POP SWAP2 SWAP1 POP JUMP JUMPDEST PUSH1 0x0 PUSH1 0x1 DUP3 PUSH1 0x40 MLOAD PUSH2 0x117 SWAP2 SWAP1 PUSH2 0x4AC JUMP JUMPDEST SWAP1 DUP2 MSTORE PUSH1 0x20 ADD PUSH1 0x40 MLOAD DUP1 SWAP2 SUB SWAP1 KECCAK256 SLOAD SWAP1 POP SWAP2 SWAP1 POP JUMP JUMPDEST DUP1 PUSH1 0x1 DUP4 PUSH1 0x40 MLOAD PUSH2 0x13E SWAP2 SWAP1 PUSH2 0x4AC JUMP JUMPDEST SWAP1 DUP2 MSTORE PUSH1 0x20 ADD PUSH1 0x40 MLOAD DUP1 SWAP2 SUB SWAP1 KECCAK256 DUP2 SWAP1 SSTORE POP POP POP JUMP JUMPDEST DUP1 PUSH1 0x0 DUP1 DUP5 DUP2 MSTORE PUSH1 0x20 ADD SWAP1 DUP2 MSTORE PUSH1 0x20 ADD PUSH1 0x0 KECCAK256 DUP2 SWAP1 SSTORE POP POP POP JUMP JUMPDEST PUSH1 0x0 PUSH1 0x40 MLOAD SWAP1 POP SWAP1 JUMP JUMPDEST PUSH1 0x0 DUP1 REVERT JUMPDEST PUSH1 0x0 DUP1 REVERT JUMPDEST PUSH1 0x0 DUP2 SWAP1 POP SWAP2 SWAP1 POP JUMP JUMPDEST PUSH2 0x196 DUP2 PUSH2 0x183 JUMP JUMPDEST DUP2 EQ PUSH2 0x1A1 JUMPI PUSH1 0x0 DUP1 REVERT JUMPDEST POP JUMP JUMPDEST PUSH1 0x0 DUP2 CALLDATALOAD SWAP1 POP PUSH2 0x1B3 DUP2 PUSH2 0x18D JUMP JUMPDEST SWAP3 SWAP2 POP POP JUMP JUMPDEST PUSH1 0x0 PUSH1 0x20 DUP3 DUP5 SUB SLT ISZERO PUSH2 0x1CF JUMPI PUSH2 0x1CE PUSH2 0x179 JUMP JUMPDEST JUMPDEST PUSH1 0x0 PUSH2 0x1DD DUP5 DUP3 DUP6 ADD PUSH2 0x1A4 JUMP JUMPDEST SWAP2 POP POP SWAP3 SWAP2 POP POP JUMP JUMPDEST PUSH2 0x1EF DUP2 PUSH2 0x183 JUMP JUMPDEST DUP3 MSTORE POP POP JUMP JUMPDEST PUSH1 0x0 PUSH1 0x20 DUP3 ADD SWAP1 POP PUSH2 0x20A PUSH1 0x0 DUP4 ADD DUP5 PUSH2 0x1E6 JUMP JUMPDEST SWAP3 SWAP2 POP POP JUMP JUMPDEST PUSH1 0x0 DUP1 REVERT JUMPDEST PUSH1 0x0 DUP1 REVERT JUMPDEST PUSH1 0x0 PUSH1 0x1F NOT PUSH1 0x1F DUP4 ADD AND SWAP1 POP SWAP2 SWAP1 POP JUMP JUMPDEST PUSH32 0x4E487B7100000000000000000000000000000000000000000000000000000000 PUSH1 0x0 MSTORE PUSH1 0x41 PUSH1 0x4 MSTORE PUSH1 0x24 PUSH1 0x0 REVERT JUMPDEST PUSH2 0x263 DUP3 PUSH2 0x21A JUMP JUMPDEST DUP2 ADD DUP2 DUP2 LT PUSH8 0xFFFFFFFFFFFFFFFF DUP3 GT OR ISZERO PUSH2 0x282 JUMPI PUSH2 0x281 PUSH2 0x22B JUMP JUMPDEST JUMPDEST DUP1 PUSH1 0x40 MSTORE POP POP POP JUMP JUMPDEST PUSH1 0x0 PUSH2 0x295 PUSH2 0x16F JUMP JUMPDEST SWAP1 POP PUSH2 0x2A1 DUP3 DUP3 PUSH2 0x25A JUMP JUMPDEST SWAP2 SWAP1 POP JUMP JUMPDEST PUSH1 0x0 PUSH8 0xFFFFFFFFFFFFFFFF DUP3 GT ISZERO PUSH2 0x2C1 JUMPI PUSH2 0x2C0 PUSH2 0x22B JUMP JUMPDEST JUMPDEST PUSH2 0x2CA DUP3 PUSH2 0x21A JUMP JUMPDEST SWAP1 POP PUSH1 0x20 DUP2 ADD SWAP1 POP SWAP2 SWAP1 POP JUMP JUMPDEST DUP3 DUP2 DUP4 CALLDATACOPY PUSH1 0x0 DUP4 DUP4 ADD MSTORE POP POP POP JUMP JUMPDEST PUSH1 0x0 PUSH2 0x2F9 PUSH2 0x2F4 DUP5 PUSH2 0x2A6 JUMP JUMPDEST PUSH2 0x28B JUMP JUMPDEST SWAP1 POP DUP3 DUP2 MSTORE PUSH1 0x20 DUP2 ADD DUP5 DUP5 DUP5 ADD GT ISZERO PUSH2 0x315 JUMPI PUSH2 0x314 PUSH2 0x215 JUMP JUMPDEST JUMPDEST PUSH2 0x320 DUP5 DUP3 DUP6 PUSH2 0x2D7 JUMP JUMPDEST POP SWAP4 SWAP3 POP POP POP JUMP JUMPDEST PUSH1 0x0 DUP3 PUSH1 0x1F DUP4 ADD SLT PUSH2 0x33D JUMPI PUSH2 0x33C PUSH2 0x210 JUMP JUMPDEST JUMPDEST DUP2 CALLDATALOAD PUSH2 0x34D DUP5 DUP3 PUSH1 0x20 DUP7 ADD PUSH2 0x2E6 JUMP JUMPDEST SWAP2 POP POP SWAP3 SWAP2 POP POP JUMP JUMPDEST PUSH1 0x0 PUSH1 0x20 DUP3 DUP5 SUB SLT ISZERO PUSH2 0x36C JUMPI PUSH2 0x36B PUSH2 0x179 JUMP JUMPDEST JUMPDEST PUSH1 0x0 DUP3 ADD CALLDATALOAD PUSH8 0xFFFFFFFFFFFFFFFF DUP2 GT ISZERO PUSH2 0x38A JUMPI PUSH2 0x389 PUSH2 0x17E JUMP JUMPDEST JUMPDEST PUSH2 0x396 DUP5 DUP3 DUP6 ADD PUSH2 0x328 JUMP JUMPDEST SWAP2 POP POP SWAP3 SWAP2 POP POP JUMP JUMPDEST PUSH1 0x0 DUP1 PUSH1 0x40 DUP4 DUP6 SUB SLT ISZERO PUSH2 0x3B6 JUMPI PUSH2 0x3B5 PUSH2 0x179 JUMP JUMPDEST JUMPDEST PUSH1 0x0 DUP4 ADD CALLDATALOAD PUSH8 0xFFFFFFFFFFFFFFFF DUP2 GT ISZERO PUSH2 0x3D4 JUMPI PUSH2 0x3D3 PUSH2 0x17E JUMP JUMPDEST JUMPDEST PUSH2 0x3E0 DUP6 DUP3 DUP7 ADD PUSH2 0x328 JUMP JUMPDEST SWAP3 POP POP PUSH1 0x20 PUSH2 0x3F1 DUP6 DUP3 DUP7 ADD PUSH2 0x1A4 JUMP JUMPDEST SWAP2 POP POP SWAP3 POP SWAP3 SWAP1 POP JUMP JUMPDEST PUSH1 0x0 DUP1 PUSH1 0x40 DUP4 DUP6 SUB SLT ISZERO PUSH2 0x412 JUMPI PUSH2 0x411 PUSH2 0x179 JUMP JUMPDEST JUMPDEST PUSH1 0x0 PUSH2 0x420 DUP6 DUP3 DUP7 ADD PUSH2 0x1A4 JUMP JUMPDEST SWAP3 POP POP PUSH1 0x20 PUSH2 0x431 DUP6 DUP3 DUP7 ADD PUSH2 0x1A4 JUMP JUMPDEST SWAP2 POP POP SWAP3 POP SWAP3 SWAP1 POP JUMP JUMPDEST PUSH1 0x0 DUP2 MLOAD SWAP1 POP SWAP2 SWAP1 POP JUMP JUMPDEST PUSH1 0x0 DUP2 SWAP1 POP SWAP3 SWAP2 POP POP JUMP JUMPDEST PUSH1 0x0 JUMPDEST DUP4 DUP2 LT ISZERO PUSH2 0x46F JUMPI DUP1 DUP3 ADD MLOAD DUP2 DUP5 ADD MSTORE PUSH1 0x20 DUP2 ADD SWAP1 POP PUSH2 0x454 JUMP JUMPDEST PUSH1 0x0 DUP5 DUP5 ADD MSTORE POP POP POP POP JUMP JUMPDEST PUSH1 0x0 PUSH2 0x486 DUP3 PUSH2 0x43B JUMP JUMPDEST PUSH2 0x490 DUP2 DUP6 PUSH2 0x446 JUMP JUMPDEST SWAP4 POP PUSH2 0x4A0 DUP2 DUP6 PUSH1 0x20 DUP7 ADD PUSH2 0x451 JUMP JUMPDEST DUP1 DUP5 ADD SWAP2 POP POP SWAP3 SWAP2 POP POP JUMP JUMPDEST PUSH1 0x0 PUSH2 0x4B8 DUP3 DUP5 PUSH2 0x47B JUMP JUMPDEST SWAP2 POP DUP2 SWAP1 POP SWAP3 SWAP2 POP POP JUMP INVALID LOG2 PUSH5 0x6970667358 0x22 SLT KECCAK256 0xFB PUSH32 0xBB8EB2DB28242136897E58CD03B4E29493060A8ADB287AF188DCFE229D966473 PUSH16 0x6C634300081200330000000000000000 "
				},
				"gasEstimates": {
					"creation": {
						"codeDepositCost": "254600",
						"executionCost": "294",
						"totalCost": "254894"
					},
					"external": {
						"getAge(uint256)": "infinite",
						"getPriceList(string)": "infinite",
						"setAgeList(uint256,uint256)": "infinite",
						"setPriceList(string,uint256)": "infinite"
					}
				},
				"methodIdentifiers": {
					"getAge(uint256)": "0e37008a",
					"getPriceList(string)": "5eac9098",
					"setAgeList(uint256,uint256)": "fe093d3b",
					"setPriceList(string,uint256)": "a266f6c2"
				}
			},
			"storageLayout": {
				"storage": [
					{
						"astId": 5,
						"contract": "lec17.sol:lec17",
						"label": "ageList",
						"offset": 0,
						"slot": "0",
						"type": "t_mapping(t_uint256,t_uint256)"
					},
					{
						"astId": 9,
						"contract": "lec17.sol:lec17",
						"label": "priceList",
						"offset": 0,
						"slot": "1",
						"type": "t_mapping(t_string_memory_ptr,t_uint256)"
					},
					{
						"astId": 13,
						"contract": "lec17.sol:lec17",
						"label": "nameList",
						"offset": 0,
						"slot": "2",
						"type": "t_mapping(t_uint256,t_string_storage)"
					}
				],
				"types": {
					"t_mapping(t_string_memory_ptr,t_uint256)": {
						"encoding": "mapping",
						"key": "t_string_memory_ptr",
						"label": "mapping(string => uint256)",
						"numberOfBytes": "32",
						"value": "t_uint256"
					},
					"t_mapping(t_uint256,t_string_storage)": {
						"encoding": "mapping",
						"key": "t_uint256",
						"label": "mapping(uint256 => string)",
						"numberOfBytes": "32",
						"value": "t_string_storage"
					},
					"t_mapping(t_uint256,t_uint256)": {
						"encoding": "mapping",
						"key": "t_uint256",
						"label": "mapping(uint256 => uint256)",
						"numberOfBytes": "32",
						"value": "t_uint256"
					},
					"t_string_memory_ptr": {
						"encoding": "bytes",
						"label": "string",
						"numberOfBytes": "32"
					},
					"t_string_storage": {
						"encoding": "bytes",
						"label": "string",
						"numberOfBytes": "32"
					},
					"t_uint256": {
						"encoding": "inplace",
						"label": "uint256",
						"numberOfBytes": "32"
					}
				}
			},
			"userdoc": {
				"kind": "user",
				"methods": {},
				"version": 1
			}
		}
	}
}