{
	"lec13.sol": {
		"lec13": {
			"abi": [
				{
					"anonymous": false,
					"inputs": [
						{
							"indexed": false,
							"internalType": "string",
							"name": "name",
							"type": "string"
						},
						{
							"indexed": false,
							"internalType": "uint256",
							"name": "money",
							"type": "uint256"
						}
					],
					"name": "info",
					"type": "event"
				},
				{
					"inputs": [],
					"name": "sendMoney",
					"outputs": [],
					"stateMutability": "nonpayable",
					"type": "function"
				}
			],
			"devdoc": {
				"kind": "dev",
				"methods": {},
				"version": 1
			},
			"evm": {
				"assembly": "    /* \"lec13.sol\":57:200  contract lec13 {... */\n  mstore(0x40, 0x80)\n  callvalue\n  dup1\n  iszero\n  tag_1\n  jumpi\n  0x00\n  dup1\n  revert\ntag_1:\n  pop\n  dataSize(sub_0)\n  dup1\n  dataOffset(sub_0)\n  0x00\n  codecopy\n  0x00\n  return\nstop\n\nsub_0: assembly {\n        /* \"lec13.sol\":57:200  contract lec13 {... */\n      mstore(0x40, 0x80)\n      callvalue\n      dup1\n      iszero\n      tag_1\n      jumpi\n      0x00\n      dup1\n      revert\n    tag_1:\n      pop\n      jumpi(tag_2, lt(calldatasize, 0x04))\n      shr(0xe0, calldataload(0x00))\n      dup1\n      0xcbedbf5a\n      eq\n      tag_3\n      jumpi\n    tag_2:\n      0x00\n      dup1\n      revert\n        /* \"lec13.sol\":124:197  function sendMoney() public {... */\n    tag_3:\n      tag_4\n      tag_5\n      jump\t// in\n    tag_4:\n      stop\n    tag_5:\n        /* \"lec13.sol\":167:190  info(\"LeeSeWook\", 1000) */\n      0x473e81062e4ff21e1cd2c2ceaa6b79bd5885f00eb22d9a844ce9fd9685f22ac7\n        /* \"lec13.sol\":185:189  1000 */\n      0x03e8\n        /* \"lec13.sol\":167:190  info(\"LeeSeWook\", 1000) */\n      mload(0x40)\n      tag_7\n      swap2\n      swap1\n      tag_8\n      jump\t// in\n    tag_7:\n      mload(0x40)\n      dup1\n      swap2\n      sub\n      swap1\n      log1\n        /* \"lec13.sol\":124:197  function sendMoney() public {... */\n      jump\t// out\n        /* \"#utility.yul\":7:176   */\n    tag_9:\n        /* \"#utility.yul\":91:102   */\n      0x00\n        /* \"#utility.yul\":125:131   */\n      dup3\n        /* \"#utility.yul\":120:123   */\n      dup3\n        /* \"#utility.yul\":113:132   */\n      mstore\n        /* \"#utility.yul\":165:169   */\n      0x20\n        /* \"#utility.yul\":160:163   */\n      dup3\n        /* \"#utility.yul\":156:170   */\n      add\n        /* \"#utility.yul\":141:170   */\n      swap1\n      pop\n        /* \"#utility.yul\":7:176   */\n      swap3\n      swap2\n      pop\n      pop\n      jump\t// out\n        /* \"#utility.yul\":182:341   */\n    tag_10:\n        /* \"#utility.yul\":322:333   */\n      0x4c65655365576f6f6b0000000000000000000000000000000000000000000000\n        /* \"#utility.yul\":318:319   */\n      0x00\n        /* \"#utility.yul\":310:316   */\n      dup3\n        /* \"#utility.yul\":306:320   */\n      add\n        /* \"#utility.yul\":299:334   */\n      mstore\n        /* \"#utility.yul\":182:341   */\n      pop\n      jump\t// out\n        /* \"#utility.yul\":347:712   */\n    tag_11:\n        /* \"#utility.yul\":489:492   */\n      0x00\n        /* \"#utility.yul\":510:576   */\n      tag_21\n        /* \"#utility.yul\":574:575   */\n      0x09\n        /* \"#utility.yul\":569:572   */\n      dup4\n        /* \"#utility.yul\":510:576   */\n      tag_9\n      jump\t// in\n    tag_21:\n        /* \"#utility.yul\":503:576   */\n      swap2\n      pop\n        /* \"#utility.yul\":585:678   */\n      tag_22\n        /* \"#utility.yul\":674:677   */\n      dup3\n        /* \"#utility.yul\":585:678   */\n      tag_10\n      jump\t// in\n    tag_22:\n        /* \"#utility.yul\":703:705   */\n      0x20\n        /* \"#utility.yul\":698:701   */\n      dup3\n        /* \"#utility.yul\":694:706   */\n      add\n        /* \"#utility.yul\":687:706   */\n      swap1\n      pop\n        /* \"#utility.yul\":347:712   */\n      swap2\n      swap1\n      pop\n      jump\t// out\n        /* \"#utility.yul\":718:806   */\n    tag_12:\n        /* \"#utility.yul\":766:773   */\n      0x00\n        /* \"#utility.yul\":795:800   */\n      dup2\n        /* \"#utility.yul\":784:800   */\n      swap1\n      pop\n        /* \"#utility.yul\":718:806   */\n      swap2\n      swap1\n      pop\n      jump\t// out\n        /* \"#utility.yul\":812:889   */\n    tag_13:\n        /* \"#utility.yul\":849:856   */\n      0x00\n        /* \"#utility.yul\":878:883   */\n      dup2\n        /* \"#utility.yul\":867:883   */\n      swap1\n      pop\n        /* \"#utility.yul\":812:889   */\n      swap2\n      swap1\n      pop\n      jump\t// out\n        /* \"#utility.yul\":895:955   */\n    tag_14:\n        /* \"#utility.yul\":923:926   */\n      0x00\n        /* \"#utility.yul\":944:949   */\n      dup2\n        /* \"#utility.yul\":937:949   */\n      swap1\n      pop\n        /* \"#utility.yul\":895:955   */\n      swap2\n      swap1\n      pop\n      jump\t// out\n        /* \"#utility.yul\":961:1125   */\n    tag_15:\n        /* \"#utility.yul\":1022:1031   */\n      0x00\n        /* \"#utility.yul\":1055:1119   */\n      tag_27\n        /* \"#utility.yul\":1073:1118   */\n      tag_28\n        /* \"#utility.yul\":1082:1117   */\n      tag_29\n        /* \"#utility.yul\":1111:1116   */\n      dup5\n        /* \"#utility.yul\":1082:1117   */\n      tag_12\n      jump\t// in\n    tag_29:\n        /* \"#utility.yul\":1073:1118   */\n      tag_14\n      jump\t// in\n    tag_28:\n        /* \"#utility.yul\":1055:1119   */\n      tag_13\n      jump\t// in\n    tag_27:\n        /* \"#utility.yul\":1042:1119   */\n      swap1\n      pop\n        /* \"#utility.yul\":961:1125   */\n      swap2\n      swap1\n      pop\n      jump\t// out\n        /* \"#utility.yul\":1131:1284   */\n    tag_16:\n        /* \"#utility.yul\":1229:1277   */\n      tag_31\n        /* \"#utility.yul\":1271:1276   */\n      dup2\n        /* \"#utility.yul\":1229:1277   */\n      tag_15\n      jump\t// in\n    tag_31:\n        /* \"#utility.yul\":1224:1227   */\n      dup3\n        /* \"#utility.yul\":1217:1278   */\n      mstore\n        /* \"#utility.yul\":1131:1284   */\n      pop\n      pop\n      jump\t// out\n        /* \"#utility.yul\":1290:1841   */\n    tag_8:\n        /* \"#utility.yul\":1495:1499   */\n      0x00\n        /* \"#utility.yul\":1533:1535   */\n      0x40\n        /* \"#utility.yul\":1522:1531   */\n      dup3\n        /* \"#utility.yul\":1518:1536   */\n      add\n        /* \"#utility.yul\":1510:1536   */\n      swap1\n      pop\n        /* \"#utility.yul\":1582:1591   */\n      dup2\n        /* \"#utility.yul\":1576:1580   */\n      dup2\n        /* \"#utility.yul\":1572:1592   */\n      sub\n        /* \"#utility.yul\":1568:1569   */\n      0x00\n        /* \"#utility.yul\":1557:1566   */\n      dup4\n        /* \"#utility.yul\":1553:1570   */\n      add\n        /* \"#utility.yul\":1546:1593   */\n      mstore\n        /* \"#utility.yul\":1610:1741   */\n      tag_33\n        /* \"#utility.yul\":1736:1740   */\n      dup2\n        /* \"#utility.yul\":1610:1741   */\n      tag_11\n      jump\t// in\n    tag_33:\n        /* \"#utility.yul\":1602:1741   */\n      swap1\n      pop\n        /* \"#utility.yul\":1751:1834   */\n      tag_34\n        /* \"#utility.yul\":1830:1832   */\n      0x20\n        /* \"#utility.yul\":1819:1828   */\n      dup4\n        /* \"#utility.yul\":1815:1833   */\n      add\n        /* \"#utility.yul\":1806:1812   */\n      dup5\n        /* \"#utility.yul\":1751:1834   */\n      tag_16\n      jump\t// in\n    tag_34:\n        /* \"#utility.yul\":1290:1841   */\n      swap3\n      swap2\n      pop\n      pop\n      jump\t// out\n\n    auxdata: 0xa264697066735822122054c4d07b3d3897ab12e72d5745e6473dcd7923f7c4a34a30647166658d89a5b564736f6c63430008120033\n}\n",
				"bytecode": {
					"linkReferences": {},
					"object": "608060405234801561001057600080fd5b50610185806100206000396000f3fe608060405234801561001057600080fd5b506004361061002b5760003560e01c8063cbedbf5a14610030575b600080fd5b61003861003a565b005b7f473e81062e4ff21e1cd2c2ceaa6b79bd5885f00eb22d9a844ce9fd9685f22ac76103e860405161006b9190610121565b60405180910390a1565b600082825260208201905092915050565b7f4c65655365576f6f6b0000000000000000000000000000000000000000000000600082015250565b60006100bc600983610075565b91506100c782610086565b602082019050919050565b6000819050919050565b6000819050919050565b6000819050919050565b600061010b610106610101846100d2565b6100e6565b6100dc565b9050919050565b61011b816100f0565b82525050565b6000604082019050818103600083015261013a816100af565b90506101496020830184610112565b9291505056fea264697066735822122054c4d07b3d3897ab12e72d5745e6473dcd7923f7c4a34a30647166658d89a5b564736f6c63430008120033",
					"opcodes": "PUSH1 0x80 PUSH1 0x40 MSTORE CALLVALUE DUP1 ISZERO PUSH2 0x10 JUMPI PUSH1 0x0 DUP1 REVERT JUMPDEST POP PUSH2 0x185 DUP1 PUSH2 0x20 PUSH1 0x0 CODECOPY PUSH1 0x0 RETURN INVALID PUSH1 0x80 PUSH1 0x40 MSTORE CALLVALUE DUP1 ISZERO PUSH2 0x10 JUMPI PUSH1 0x0 DUP1 REVERT JUMPDEST POP PUSH1 0x4 CALLDATASIZE LT PUSH2 0x2B JUMPI PUSH1 0x0 CALLDATALOAD PUSH1 0xE0 SHR DUP1 PUSH4 0xCBEDBF5A EQ PUSH2 0x30 JUMPI JUMPDEST PUSH1 0x0 DUP1 REVERT JUMPDEST PUSH2 0x38 PUSH2 0x3A JUMP JUMPDEST STOP JUMPDEST PUSH32 0x473E81062E4FF21E1CD2C2CEAA6B79BD5885F00EB22D9A844CE9FD9685F22AC7 PUSH2 0x3E8 PUSH1 0x40 MLOAD PUSH2 0x6B SWAP2 SWAP1 PUSH2 0x121 JUMP JUMPDEST PUSH1 0x40 MLOAD DUP1 SWAP2 SUB SWAP1 LOG1 JUMP JUMPDEST PUSH1 0x0 DUP3 DUP3 MSTORE PUSH1 0x20 DUP3 ADD SWAP1 POP SWAP3 SWAP2 POP POP JUMP JUMPDEST PUSH32 0x4C65655365576F6F6B0000000000000000000000000000000000000000000000 PUSH1 0x0 DUP3 ADD MSTORE POP JUMP JUMPDEST PUSH1 0x0 PUSH2 0xBC PUSH1 0x9 DUP4 PUSH2 0x75 JUMP JUMPDEST SWAP2 POP PUSH2 0xC7 DUP3 PUSH2 0x86 JUMP JUMPDEST PUSH1 0x20 DUP3 ADD SWAP1 POP SWAP2 SWAP1 POP JUMP JUMPDEST PUSH1 0x0 DUP2 SWAP1 POP SWAP2 SWAP1 POP JUMP JUMPDEST PUSH1 0x0 DUP2 SWAP1 POP SWAP2 SWAP1 POP JUMP JUMPDEST PUSH1 0x0 DUP2 SWAP1 POP SWAP2 SWAP1 POP JUMP JUMPDEST PUSH1 0x0 PUSH2 0x10B PUSH2 0x106 PUSH2 0x101 DUP5 PUSH2 0xD2 JUMP JUMPDEST PUSH2 0xE6 JUMP JUMPDEST PUSH2 0xDC JUMP JUMPDEST SWAP1 POP SWAP2 SWAP1 POP JUMP JUMPDEST PUSH2 0x11B DUP2 PUSH2 0xF0 JUMP JUMPDEST DUP3 MSTORE POP POP JUMP JUMPDEST PUSH1 0x0 PUSH1 0x40 DUP3 ADD SWAP1 POP DUP2 DUP2 SUB PUSH1 0x0 DUP4 ADD MSTORE PUSH2 0x13A DUP2 PUSH2 0xAF JUMP JUMPDEST SWAP1 POP PUSH2 0x149 PUSH1 0x20 DUP4 ADD DUP5 PUSH2 0x112 JUMP JUMPDEST SWAP3 SWAP2 POP POP JUMP INVALID LOG2 PUSH5 0x6970667358 0x22 SLT KECCAK256 SLOAD 0xC4 0xD0 PUSH28 0x3D3897AB12E72D5745E6473DCD7923F7C4A34A30647166658D89A5B5 PUSH5 0x736F6C6343 STOP ADDMOD SLT STOP CALLER "
				},
				"gasEstimates": {
					"creation": {
						"codeDepositCost": "77800",
						"executionCost": "129",
						"totalCost": "77929"
					},
					"external": {
						"sendMoney()": "2412"
					}
				},
				"methodIdentifiers": {
					"sendMoney()": "cbedbf5a"
				}
			},
			"storageLayout": {
				"storage": [],
				"types": null
			},
			"userdoc": {
				"kind": "user",
				"methods": {},
				"version": 1
			}
		}
	}
}