{
  "contractName": "Counter",
  "abi": [
    {
      "inputs": [],
      "stateMutability": "nonpayable",
      "type": "constructor"
    },
    {
      "anonymous": false,
      "inputs": [
        {
          "indexed": false,
          "internalType": "uint256",
          "name": "count",
          "type": "uint256"
        }
      ],
      "name": "Count",
      "type": "event"
    },
    {
      "inputs": [],
      "name": "get",
      "outputs": [
        {
          "internalType": "uint256",
          "name": "",
          "type": "uint256"
        }
      ],
      "stateMutability": "view",
      "type": "function",
      "constant": true
    },
    {
      "inputs": [],
      "name": "increment",
      "outputs": [],
      "stateMutability": "nonpayable",
      "type": "function"
    },
    {
      "inputs": [],
      "name": "decrement",
      "outputs": [],
      "stateMutability": "nonpayable",
      "type": "function"
    }
  ],
  "bytecode": "0x608060405234801561000f575f80fd5b5061021b8061001d5f395ff3fe608060405234801561000f575f80fd5b506004361061003f575f3560e01c80632baeceb7146100435780636d4ce63c1461004d578063d09de08a1461006b575b5f80fd5b61004b610075565b005b6100556100c7565b6040516100629190610139565b60405180910390f35b6100736100cf565b005b60015f80828254610086919061017f565b925050819055507face32e4392fafee7f8245a5ae6a32722dc74442d018c52e460835648cbeeeba15f546040516100bd9190610139565b60405180910390a1565b5f8054905090565b60015f808282546100e091906101b2565b925050819055507face32e4392fafee7f8245a5ae6a32722dc74442d018c52e460835648cbeeeba15f546040516101179190610139565b60405180910390a1565b5f819050919050565b61013381610121565b82525050565b5f60208201905061014c5f83018461012a565b92915050565b7f4e487b71000000000000000000000000000000000000000000000000000000005f52601160045260245ffd5b5f61018982610121565b915061019483610121565b92508282039050818111156101ac576101ab610152565b5b92915050565b5f6101bc82610121565b91506101c783610121565b92508282019050808211156101df576101de610152565b5b9291505056fea2646970667358221220b976f3bf770c2cbbb94368c25f1f8543958bde5a1b4543d827c495686bc49b6164736f6c63430008140033",
  "immutableReferences": {},
  "source": "// SPDX-License-Identifier: MIT\npragma solidity ^0.8.0;\n\ncontract Counter {\n    uint256 value;\n    event Count(uint256 count);\n\n    constructor(){}\n\n    function get() public view returns(uint256){\n        return value;\n    }\n\n    function increment() public{\n        value += 1;\n        emit Count(value);\n    }\n\n    function decrement() public {\n        value -= 1;\n        emit Count(value);\n    }\n}",
  "sourcePath": "/Users/mac/Desktop/KGA/TypeScript/ethereum/230525/contracts/Counter.sol",
  "compiler": {
    "name": "solc",
    "version": "0.8.20+commit.a1b79de6.Emscripten.clang"
  },
  "schemaVersion": "3.4.14",
  "updatedAt": "2023-05-25T02:28:26.363Z",
  "networkType": "ethereum",
  "devdoc": {
    "kind": "dev",
    "methods": {},
    "version": 1
  },
  "userdoc": {
    "kind": "user",
    "methods": {},
    "version": 1
  }
}