{
  "contractName": "Counter",
  "abi": [
    {
      "inputs": [],
      "stateMutability": "nonpayable",
      "type": "constructor"
    },
    {
      "inputs": [],
      "name": "getValue",
      "outputs": [
        {
          "internalType": "uint256",
          "name": "",
          "type": "uint256"
        }
      ],
      "stateMutability": "view",
      "type": "function",
      "constant": true
    },
    {
      "inputs": [
        {
          "internalType": "uint256",
          "name": "_value",
          "type": "uint256"
        }
      ],
      "name": "setValue",
      "outputs": [],
      "stateMutability": "nonpayable",
      "type": "function"
    },
    {
      "inputs": [],
      "name": "increment",
      "outputs": [],
      "stateMutability": "nonpayable",
      "type": "function"
    },
    {
      "inputs": [],
      "name": "decrement",
      "outputs": [],
      "stateMutability": "nonpayable",
      "type": "function"
    }
  ],
  "bytecode": "0x608060405234801561001057600080fd5b50610260806100206000396000f3fe608060405234801561001057600080fd5b506004361061004c5760003560e01c806320965255146100515780632baeceb71461006f5780635524107714610079578063d09de08a14610095575b600080fd5b61005961009f565b6040516100669190610135565b60405180910390f35b6100776100a8565b005b610093600480360381019061008e91906100fd565b6100c3565b005b61009d6100cd565b005b60008054905090565b60016000808282546100ba91906101a6565b92505081905550565b8060008190555050565b60016000808282546100df9190610150565b92505081905550565b6000813590506100f781610213565b92915050565b60006020828403121561010f57600080fd5b600061011d848285016100e8565b91505092915050565b61012f816101da565b82525050565b600060208201905061014a6000830184610126565b92915050565b600061015b826101da565b9150610166836101da565b9250827fffffffffffffffffffffffffffffffffffffffffffffffffffffffffffffffff0382111561019b5761019a6101e4565b5b828201905092915050565b60006101b1826101da565b91506101bc836101da565b9250828210156101cf576101ce6101e4565b5b828203905092915050565b6000819050919050565b7f4e487b7100000000000000000000000000000000000000000000000000000000600052601160045260246000fd5b61021c816101da565b811461022757600080fd5b5056fea26469706673582212202a231c75e39acb3f5a046bb160686a11ffcc318439afa9830b0dd8cf4c396ead64736f6c63430008000033",
  "immutableReferences": {},
  "source": "// SPDX-License-Identifier: MIT\npragma solidity ^0.8.0;\n\ncontract Counter {\n    uint256 value;\n\n    constructor() public {}\n\n    function getValue() public view returns(uint256){\n        return value;\n    }\n\n    function setValue(uint256 _value)public {\n        value = _value;\n    }\n\n    function increment() public {\n        value += 1;\n    }\n\n    function decrement() public {\n        value -= 1;\n    }\n}",
  "sourcePath": "/Users/mac/Desktop/KGA/TypeScript/ethereum/230524/contracts/Counter.sol",
  "compiler": {
    "name": "solc",
    "version": "0.8.0+commit.c7dfd78e.Emscripten.clang"
  },
  "schemaVersion": "3.4.14",
  "updatedAt": "2023-05-24T03:16:24.796Z",
  "networkType": "ethereum",
  "devdoc": {
    "kind": "dev",
    "methods": {},
    "version": 1
  },
  "userdoc": {
    "kind": "user",
    "methods": {},
    "version": 1
  }
}