{
  "contractName": "Lottery",
  "abi": [
    {
      "inputs": [],
      "stateMutability": "nonpayable",
      "type": "constructor"
    },
    {
      "anonymous": false,
      "inputs": [
        {
          "indexed": false,
          "internalType": "uint256",
          "name": "index",
          "type": "uint256"
        },
        {
          "indexed": false,
          "internalType": "address",
          "name": "better",
          "type": "address"
        },
        {
          "indexed": false,
          "internalType": "uint256",
          "name": "amount",
          "type": "uint256"
        },
        {
          "indexed": false,
          "internalType": "bytes",
          "name": "challenges",
          "type": "bytes"
        },
        {
          "indexed": false,
          "internalType": "uint256",
          "name": "answerBLockNumber",
          "type": "uint256"
        }
      ],
      "name": "BET",
      "type": "event"
    },
    {
      "inputs": [],
      "name": "owner",
      "outputs": [
        {
          "internalType": "address",
          "name": "",
          "type": "address"
        }
      ],
      "stateMutability": "view",
      "type": "function"
    },
    {
      "inputs": [],
      "name": "getPot",
      "outputs": [
        {
          "internalType": "uint256",
          "name": "value",
          "type": "uint256"
        }
      ],
      "stateMutability": "view",
      "type": "function"
    },
    {
      "inputs": [
        {
          "internalType": "bytes",
          "name": "challenges",
          "type": "bytes"
        }
      ],
      "name": "bet",
      "outputs": [
        {
          "internalType": "bool",
          "name": "result",
          "type": "bool"
        }
      ],
      "stateMutability": "payable",
      "type": "function"
    },
    {
      "inputs": [
        {
          "internalType": "uint256",
          "name": "index",
          "type": "uint256"
        }
      ],
      "name": "getBetInfo",
      "outputs": [
        {
          "internalType": "uint256",
          "name": "answerBlockNumber",
          "type": "uint256"
        },
        {
          "internalType": "address",
          "name": "better",
          "type": "address"
        },
        {
          "internalType": "bytes",
          "name": "challenges",
          "type": "bytes"
        }
      ],
      "stateMutability": "view",
      "type": "function"
    },
    {
      "inputs": [
        {
          "internalType": "bytes",
          "name": "challenges",
          "type": "bytes"
        }
      ],
      "name": "pushBet",
      "outputs": [
        {
          "internalType": "bool",
          "name": "",
          "type": "bool"
        }
      ],
      "stateMutability": "nonpayable",
      "type": "function"
    },
    {
      "inputs": [
        {
          "internalType": "uint256",
          "name": "index",
          "type": "uint256"
        }
      ],
      "name": "popBet",
      "outputs": [
        {
          "internalType": "bool",
          "name": "",
          "type": "bool"
        }
      ],
      "stateMutability": "nonpayable",
      "type": "function"
    }
  ],
  "bytecode": "0x608060405234801561001057600080fd5b5033600360006101000a81548173ffffffffffffffffffffffffffffffffffffffff021916908373ffffffffffffffffffffffffffffffffffffffff160217905550610c74806100616000396000f3fe6080604052600436106100555760003560e01c8063403c9fa81461005a578063599eac8a1461008557806379141f80146100b55780638da5cb5b146100f4578063982141351461011f578063d04c9a8c1461015c575b600080fd5b34801561006657600080fd5b5061006f610199565b60405161007c91906108b9565b60405180910390f35b61009f600480360381019061009a91906106f3565b6101a3565b6040516100ac919061085e565b60405180910390f35b3480156100c157600080fd5b506100dc60048036038101906100d79190610734565b610298565b6040516100eb939291906108d4565b60405180910390f35b34801561010057600080fd5b506101096103ce565b6040516101169190610843565b60405180910390f35b34801561012b57600080fd5b50610146600480360381019061014191906106f3565b6103f4565b604051610153919061085e565b60405180910390f35b34801561016857600080fd5b50610183600480360381019061017e9190610734565b6104fc565b604051610190919061085e565b60405180910390f35b6000600454905090565b60006611c37937e0800034146101ee576040517f08c379a00000000000000000000000000000000000000000000000000000000081526004016101e590610879565b60405180910390fd5b6101f7826103f4565b610236576040517f08c379a000000000000000000000000000000000000000000000000000000000815260040161022d90610899565b60405180910390fd5b7f2fd14896e96d250bb5049b83d0198fc7663c624bc855bd734f54a2d56cab236b60016000546102669190610a50565b33348560034361027691906109fa565b604051610287959493929190610912565b60405180910390a160019050919050565b6000806060600060026000868152602001908152602001600020604051806060016040529081600082015481526020016001820160009054906101000a900473ffffffffffffffffffffffffffffffffffffffff1673ffffffffffffffffffffffffffffffffffffffff1673ffffffffffffffffffffffffffffffffffffffff16815260200160028201805461032d90610b0e565b80601f016020809104026020016040519081016040528092919081815260200182805461035990610b0e565b80156103a65780601f1061037b576101008083540402835291602001916103a6565b820191906000526020600020905b81548152906001019060200180831161038957829003601f168201915b5050505050815250509050806000015193508060200151925080604001519150509193909250565b600360009054906101000a900473ffffffffffffffffffffffffffffffffffffffff1681565b60006103fe61055c565b33816020019073ffffffffffffffffffffffffffffffffffffffff16908173ffffffffffffffffffffffffffffffffffffffff168152505060034361044391906109fa565b8160000181815250508281604001819052508060026000805481526020019081526020016000206000820151816000015560208201518160010160006101000a81548173ffffffffffffffffffffffffffffffffffffffff021916908373ffffffffffffffffffffffffffffffffffffffff16021790555060408201518160020190805190602001906104d7929190610593565b509050506000808154809291906104ed90610b40565b91905055506001915050919050565b6000600260008381526020019081526020016000206000808201600090556001820160006101000a81549073ffffffffffffffffffffffffffffffffffffffff02191690556002820160006105519190610619565b505060019050919050565b604051806060016040528060008152602001600073ffffffffffffffffffffffffffffffffffffffff168152602001606081525090565b82805461059f90610b0e565b90600052602060002090601f0160209004810192826105c15760008555610608565b82601f106105da57805160ff1916838001178555610608565b82800160010185558215610608579182015b828111156106075782518255916020019190600101906105ec565b5b5090506106159190610659565b5090565b50805461062590610b0e565b6000825580601f106106375750610656565b601f0160209004906000526020600020908101906106559190610659565b5b50565b5b8082111561067257600081600090555060010161065a565b5090565b60006106896106848461099d565b61096c565b9050828152602081018484840111156106a157600080fd5b6106ac848285610acc565b509392505050565b600082601f8301126106c557600080fd5b81356106d5848260208601610676565b91505092915050565b6000813590506106ed81610c27565b92915050565b60006020828403121561070557600080fd5b600082013567ffffffffffffffff81111561071f57600080fd5b61072b848285016106b4565b91505092915050565b60006020828403121561074657600080fd5b6000610754848285016106de565b91505092915050565b61076681610a84565b82525050565b61077581610a96565b82525050565b6000610786826109cd565b61079081856109d8565b93506107a0818560208601610adb565b6107a981610c16565b840191505092915050565b60006107c1600e836109e9565b91507f4e6f7420656e6f756768204554480000000000000000000000000000000000006000830152602082019050919050565b6000610801601a836109e9565b91507f4661696c20746f206164642061206e65772042657420496e666f0000000000006000830152602082019050919050565b61083d81610ac2565b82525050565b6000602082019050610858600083018461075d565b92915050565b6000602082019050610873600083018461076c565b92915050565b60006020820190508181036000830152610892816107b4565b9050919050565b600060208201905081810360008301526108b2816107f4565b9050919050565b60006020820190506108ce6000830184610834565b92915050565b60006060820190506108e96000830186610834565b6108f6602083018561075d565b8181036040830152610908818461077b565b9050949350505050565b600060a0820190506109276000830188610834565b610934602083018761075d565b6109416040830186610834565b8181036060830152610953818561077b565b90506109626080830184610834565b9695505050505050565b6000604051905081810181811067ffffffffffffffff8211171561099357610992610be7565b5b8060405250919050565b600067ffffffffffffffff8211156109b8576109b7610be7565b5b601f19601f8301169050602081019050919050565b600081519050919050565b600082825260208201905092915050565b600082825260208201905092915050565b6000610a0582610ac2565b9150610a1083610ac2565b9250827fffffffffffffffffffffffffffffffffffffffffffffffffffffffffffffffff03821115610a4557610a44610b89565b5b828201905092915050565b6000610a5b82610ac2565b9150610a6683610ac2565b925082821015610a7957610a78610b89565b5b828203905092915050565b6000610a8f82610aa2565b9050919050565b60008115159050919050565b600073ffffffffffffffffffffffffffffffffffffffff82169050919050565b6000819050919050565b82818337600083830152505050565b60005b83811015610af9578082015181840152602081019050610ade565b83811115610b08576000848401525b50505050565b60006002820490506001821680610b2657607f821691505b60208210811415610b3a57610b39610bb8565b5b50919050565b6000610b4b82610ac2565b91507fffffffffffffffffffffffffffffffffffffffffffffffffffffffffffffffff821415610b7e57610b7d610b89565b5b600182019050919050565b7f4e487b7100000000000000000000000000000000000000000000000000000000600052601160045260246000fd5b7f4e487b7100000000000000000000000000000000000000000000000000000000600052602260045260246000fd5b7f4e487b7100000000000000000000000000000000000000000000000000000000600052604160045260246000fd5b6000601f19601f8301169050919050565b610c3081610ac2565b8114610c3b57600080fd5b5056fea2646970667358221220a71721891eee51dc51e62f67f47c14e45a46ed60d4f3ad4047bb7ffec5d0a22a64736f6c63430008000033",
  "immutableReferences": {},
  "source": "// SPDX-License-Identifier: MIT\n\npragma solidity ^0.8.0;\n\ncontract Lottery {\n    struct BetInfo{\n        uint256 answerBlockNumber;\n        address payable better;\n        bytes challenges;\n    }\n\n    uint256 private _tail;\n    uint256 private _head;\n    mapping (uint256 => BetInfo) private _bets;\n\n    address public owner;\n\n    uint256 constant internal BLOCK_LIMIT = 256;\n    uint256 constant internal BET_BLOCK_INTERVAL = 3;\n    uint256 constant internal BET_AMOUNT = 5 * 10 ** 15;\n    uint256 private _pot;\n\n    event BET(uint256 index, address better, uint256 amount, bytes challenges, uint256 answerBLockNumber);\n    constructor() public {\n        owner = msg.sender;\n    } \n\n    function getPot() public view returns(uint256 value) {\n        return _pot;\n    }\n\n    // BET\n    /**\n     * @dev  .  0.005 ETH ,  1byte  .\n     *      distribute  . \n     * @param challenges   \n     ** @return    \n     */\n    function bet(bytes memory challenges) public payable returns(bool result) {\n        // check the proper ether is sent\n        require(msg.value == BET_AMOUNT, \"Not enough ETH\");\n\n        //push bet to the queue\n        require(pushBet(challenges),\"Fail to add a new Bet Info\");\n\n        // emit event\n        emit BET(_tail -1, msg.sender, msg.value, challenges, block.number + BET_BLOCK_INTERVAL);\n        return true;\n    }\n        // save the bet to the queue\n\n    // Distribute\n        // check the answer\n        \n\n    function getBetInfo(uint256 index) public view returns (uint256 answerBlockNumber, address better, bytes memory challenges){\n        BetInfo memory b = _bets[index];\n        answerBlockNumber = b.answerBlockNumber;\n        better = b.better;\n        challenges = b.challenges;\n    }\n\n    function pushBet(bytes memory challenges) public returns(bool){\n        BetInfo memory b;\n        b.better = payable(msg.sender);\n        b.answerBlockNumber = block.number + BET_BLOCK_INTERVAL; \n        b.challenges = challenges;\n\n        _bets[_tail] = b;\n        _tail++;\n\n        return true;\n    }\n\n    function popBet(uint256 index) public returns (bool) {\n        delete _bets[index];\n        return true;\n    }\n}",
  "sourcePath": "/Users/mac/Desktop/KGA/TypeScript/ethereum/LotteryDapp/contracts/Lottery.sol",
  "compiler": {
    "name": "solc",
    "version": "0.8.0+commit.c7dfd78e.Emscripten.clang"
  },
  "schemaVersion": "3.4.14",
  "updatedAt": "2023-05-31T11:11:09.597Z",
  "devdoc": {
    "kind": "dev",
    "methods": {
      "bet(bytes)": {
        "details": " .  0.005 ETH ,  1byte  .      distribute  . ",
        "params": {
          "challenges": "  ** @return    "
        }
      }
    },
    "version": 1
  },
  "userdoc": {
    "kind": "user",
    "methods": {},
    "version": 1
  }
}