{
  "contractName": "AppleShop",
  "abi": [
    {
      "inputs": [],
      "name": "buy",
      "outputs": [],
      "stateMutability": "payable",
      "type": "function",
      "payable": true
    },
    {
      "inputs": [],
      "name": "get",
      "outputs": [
        {
          "internalType": "uint256",
          "name": "",
          "type": "uint256"
        }
      ],
      "stateMutability": "view",
      "type": "function",
      "constant": true
    },
    {
      "inputs": [],
      "name": "sell",
      "outputs": [],
      "stateMutability": "payable",
      "type": "function",
      "payable": true
    }
  ],
  "bytecode": "0x608060405234801561001057600080fd5b50610343806100206000396000f3fe6080604052600436106100345760003560e01c806345710074146100395780636d4ce63c14610043578063a6f2ae3a1461006e575b600080fd5b610041610078565b005b34801561004f57600080fd5b5061005861015c565b6040516100659190610209565b60405180910390f35b6100766101a2565b005b6000670de0b6b3a76400006000803373ffffffffffffffffffffffffffffffffffffffff1673ffffffffffffffffffffffffffffffffffffffff168152602001908152602001600020546100cc919061027a565b905060008060003373ffffffffffffffffffffffffffffffffffffffff1673ffffffffffffffffffffffffffffffffffffffff168152602001908152602001600020819055503373ffffffffffffffffffffffffffffffffffffffff166108fc829081150290604051600060405180830381858888f19350505050158015610158573d6000803e3d6000fd5b5050565b60008060003373ffffffffffffffffffffffffffffffffffffffff1673ffffffffffffffffffffffffffffffffffffffff16815260200190815260200160002054905090565b60016000803373ffffffffffffffffffffffffffffffffffffffff1673ffffffffffffffffffffffffffffffffffffffff16815260200190815260200160002060008282546101f19190610224565b92505081905550565b610203816102d4565b82525050565b600060208201905061021e60008301846101fa565b92915050565b600061022f826102d4565b915061023a836102d4565b9250827fffffffffffffffffffffffffffffffffffffffffffffffffffffffffffffffff0382111561026f5761026e6102de565b5b828201905092915050565b6000610285826102d4565b9150610290836102d4565b9250817fffffffffffffffffffffffffffffffffffffffffffffffffffffffffffffffff04831182151516156102c9576102c86102de565b5b828202905092915050565b6000819050919050565b7f4e487b7100000000000000000000000000000000000000000000000000000000600052601160045260246000fdfea2646970667358221220c898ba90a9e1d418d7edca00d7aa9b262b5143933e31dc65d4aba9c74a9dec6f64736f6c63430008000033",
  "immutableReferences": {},
  "source": "// SPDX-License-Identifier: MIT\n\npragma solidity ^0.8.0;\n\ncontract AppleShop {\n    mapping(address=>uint256) myApple;\n\n    function buy() public payable{\n        myApple[msg.sender] += 1; // uint256 초기값 0\n    }\n\n    function get() public view returns(uint256){\n        return  myApple[msg.sender];\n    }\n\n    function sell() public payable {\n        uint256 refund = myApple[msg.sender] * 10 ** 18;\n        myApple[msg.sender] = 0;\n        payable(msg.sender).transfer(refund); // return : Account객체 => codehash, storage, balance, nonce\n    }\n\n    /*\n    const tx = {\n        from:'0x000',\n        to:CA,\n        data:\"\",\n        value:\"1000000000000000000\" 1eth\n    }\n    이더리움은 value 값을 넘길 수 없게 만들어 놨지만 value값을 넘겨야할 경우에는 payable 속성을 달아줘야한다.\n     */\n\n}",
  "sourcePath": "/Users/mac/Desktop/KGA/TypeScript/ethereum/230530/contracts/appleShop.sol",
  "compiler": {
    "name": "solc",
    "version": "0.8.0+commit.c7dfd78e.Emscripten.clang"
  },
  "schemaVersion": "3.4.14",
  "updatedAt": "2023-05-30T02:35:30.282Z",
  "networkType": "ethereum",
  "devdoc": {
    "kind": "dev",
    "methods": {},
    "version": 1
  },
  "userdoc": {
    "kind": "user",
    "methods": {},
    "version": 1
  }
}